{
  "contractName": "Escrow",
  "abi": [
    {
      "anonymous": false,
      "inputs": [
        {
          "indexed": true,
          "name": "seller",
          "type": "address"
        },
        {
          "indexed": false,
          "name": "tokenAmount",
          "type": "uint256"
        }
      ],
      "name": "LogSellerDelivered",
      "type": "event"
    },
    {
      "anonymous": false,
      "inputs": [
        {
          "indexed": true,
          "name": "buyer",
          "type": "address"
        },
        {
          "indexed": false,
          "name": "amount",
          "type": "uint256"
        }
      ],
      "name": "LogBuyerPaid",
      "type": "event"
    },
    {
      "anonymous": false,
      "inputs": [
        {
          "indexed": true,
          "name": "seller",
          "type": "address"
        },
        {
          "indexed": false,
          "name": "amount",
          "type": "uint256"
        }
      ],
      "name": "LogSellerWithdrew",
      "type": "event"
    },
    {
      "anonymous": false,
      "inputs": [
        {
          "indexed": true,
          "name": "buyer",
          "type": "address"
        },
        {
          "indexed": false,
          "name": "tokenAmount",
          "type": "uint256"
        }
      ],
      "name": "LogBuyerWithdrew",
      "type": "event"
    },
    {
      "constant": false,
      "inputs": [
        {
          "name": "_seller",
          "type": "address"
        },
        {
          "name": "_buyer",
          "type": "address"
        },
        {
          "name": "_tokenAmount",
          "type": "uint256"
        },
        {
          "name": "_tokenContractAddress",
          "type": "address"
        },
        {
          "name": "_winningBid",
          "type": "bytes32"
        }
      ],
      "name": "initialize",
      "outputs": [],
      "payable": false,
      "stateMutability": "nonpayable",
      "type": "function"
    },
    {
      "constant": true,
      "inputs": [],
      "name": "getTokenAmount",
      "outputs": [
        {
          "name": "",
          "type": "uint256"
        }
      ],
      "payable": false,
      "stateMutability": "view",
      "type": "function"
    },
    {
      "constant": true,
      "inputs": [],
      "name": "getTokenContractAddress",
      "outputs": [
        {
          "name": "",
          "type": "address"
        }
      ],
      "payable": false,
      "stateMutability": "view",
      "type": "function"
    },
    {
      "constant": true,
      "inputs": [],
      "name": "getWinningBid",
      "outputs": [
        {
          "name": "",
          "type": "uint256"
        }
      ],
      "payable": false,
      "stateMutability": "view",
      "type": "function"
    },
    {
      "constant": false,
      "inputs": [],
      "name": "sellerDelivery",
      "outputs": [],
      "payable": false,
      "stateMutability": "nonpayable",
      "type": "function"
    },
    {
      "constant": false,
      "inputs": [],
      "name": "buyerPayment",
      "outputs": [],
      "payable": true,
      "stateMutability": "payable",
      "type": "function"
    },
    {
      "constant": true,
      "inputs": [],
      "name": "bothOk",
      "outputs": [
        {
          "name": "",
          "type": "bool"
        }
      ],
      "payable": false,
      "stateMutability": "view",
      "type": "function"
    },
    {
      "constant": false,
      "inputs": [],
      "name": "startWithdraw",
      "outputs": [
        {
          "name": "",
          "type": "bool"
        }
      ],
      "payable": false,
      "stateMutability": "nonpayable",
      "type": "function"
    },
    {
      "constant": false,
      "inputs": [],
      "name": "sellerWithdraw",
      "outputs": [],
      "payable": true,
      "stateMutability": "payable",
      "type": "function"
    },
    {
      "constant": false,
      "inputs": [],
      "name": "buyerWithdraw",
      "outputs": [],
      "payable": false,
      "stateMutability": "nonpayable",
      "type": "function"
    }
  ],
  "bytecode": "0x608060405234801561001057600080fd5b50611865806100206000396000f3fe6080604052600436106100915760003560e01c80637cc947d0116100595780637cc947d0146101de57806390ed6bf4146101f557806399ba9ac114610224578063e6cd064b1461022e578063ee6455a01461025957610091565b806322e455841461009657806341b1da5c146100ed5780635750efed1461019257806366af746b146101a957806375f91ec8146101b3575b600080fd5b3480156100a257600080fd5b506100ab610288565b604051808273ffffffffffffffffffffffffffffffffffffffff1673ffffffffffffffffffffffffffffffffffffffff16815260200191505060405180910390f35b3480156100f957600080fd5b50610190600480360360a081101561011057600080fd5b81019080803573ffffffffffffffffffffffffffffffffffffffff169060200190929190803573ffffffffffffffffffffffffffffffffffffffff16906020019092919080359060200190929190803573ffffffffffffffffffffffffffffffffffffffff169060200190929190803590602001909291905050506103cf565b005b34801561019e57600080fd5b506101a76105ea565b005b6101b16108bc565b005b3480156101bf57600080fd5b506101c8610c57565b6040518082815260200191505060405180910390f35b3480156101ea57600080fd5b506101f3610d7e565b005b34801561020157600080fd5b5061020a611254565b604051808215151515815260200191505060405180910390f35b61022c61133a565b005b34801561023a57600080fd5b506102436114f3565b6040518082815260200191505060405180910390f35b34801561026557600080fd5b5061026e61161a565b604051808215151515815260200191505060405180910390f35b6000603460009054906101000a900473ffffffffffffffffffffffffffffffffffffffff1673ffffffffffffffffffffffffffffffffffffffff163373ffffffffffffffffffffffffffffffffffffffff1614806103335750603560009054906101000a900473ffffffffffffffffffffffffffffffffffffffff1673ffffffffffffffffffffffffffffffffffffffff163373ffffffffffffffffffffffffffffffffffffffff16145b15156103a7576040517f08c379a00000000000000000000000000000000000000000000000000000000081526004018080602001828103825260158152602001807f53656e646572206e6f7420617574686f72697a6564000000000000000000000081525060200191505060405180910390fd5b603760009054906101000a900473ffffffffffffffffffffffffffffffffffffffff16905090565b600060019054906101000a900460ff16806103ee57506103ed6117f4565b5b8061040557506000809054906101000a900460ff16155b151561045c576040517f08c379a000000000000000000000000000000000000000000000000000000000815260040180806020018281038252602e81526020018061180c602e913960400191505060405180910390fd5b60008060019054906101000a900460ff1615905080156104ac576001600060016101000a81548160ff02191690831515021790555060016000806101000a81548160ff0219169083151502179055505b33603360006101000a81548173ffffffffffffffffffffffffffffffffffffffff021916908373ffffffffffffffffffffffffffffffffffffffff16021790555085603460006101000a81548173ffffffffffffffffffffffffffffffffffffffff021916908373ffffffffffffffffffffffffffffffffffffffff16021790555084603560006101000a81548173ffffffffffffffffffffffffffffffffffffffff021916908373ffffffffffffffffffffffffffffffffffffffff1602179055508360368190555082603760006101000a81548173ffffffffffffffffffffffffffffffffffffffff021916908373ffffffffffffffffffffffffffffffffffffffff1602179055508160001c60388190555080156105e25760008060016101000a81548160ff0219169083151502179055505b505050505050565b603460009054906101000a900473ffffffffffffffffffffffffffffffffffffffff1673ffffffffffffffffffffffffffffffffffffffff163373ffffffffffffffffffffffffffffffffffffffff161415156106af576040517f08c379a00000000000000000000000000000000000000000000000000000000081526004018080602001828103825260158152602001807f53656e646572206e6f7420617574686f72697a6564000000000000000000000081525060200191505060405180910390fd5b6036546039600082825401925050819055506001603b60006101000a81548160ff021916908315150217905550603760009054906101000a900473ffffffffffffffffffffffffffffffffffffffff1673ffffffffffffffffffffffffffffffffffffffff166323b872dd33306036546040518463ffffffff1660e01b8152600401808473ffffffffffffffffffffffffffffffffffffffff1673ffffffffffffffffffffffffffffffffffffffff1681526020018373ffffffffffffffffffffffffffffffffffffffff1673ffffffffffffffffffffffffffffffffffffffff1681526020018281526020019350505050602060405180830381600087803b1580156107bb57600080fd5b505af11580156107cf573d6000803e3d6000fd5b505050506040513d60208110156107e557600080fd5b8101908080519060200190929190505050151561086a576040517f08c379a000000000000000000000000000000000000000000000000000000000815260040180806020018281038252600f8152602001807f5472616e73666572206661696c6564000000000000000000000000000000000081525060200191505060405180910390fd5b3373ffffffffffffffffffffffffffffffffffffffff167fed344010d421af00a47884e493edf6c4929c6912af83767f16d24220acdaa8316036546040518082815260200191505060405180910390a2565b603460009054906101000a900473ffffffffffffffffffffffffffffffffffffffff1673ffffffffffffffffffffffffffffffffffffffff163373ffffffffffffffffffffffffffffffffffffffff16141515610981576040517f08c379a00000000000000000000000000000000000000000000000000000000081526004018080602001828103825260158152602001807f53656e646572206e6f7420617574686f72697a6564000000000000000000000081525060200191505060405180910390fd5b61098961161a565b15156109fd576040517f08c379a00000000000000000000000000000000000000000000000000000000081526004018080602001828103825260168152602001807f457363726f77206973206e6f7420636f6d706c6574650000000000000000000081525060200191505060405180910390fd5b603b60029054906101000a900460ff161515610a81576040517f08c379a00000000000000000000000000000000000000000000000000000000081526004018080602001828103825260198152602001807f416374696f6e206e6f7420617574686f72697a6564206e6f770000000000000081525060200191505060405180910390fd5b6038543073ffffffffffffffffffffffffffffffffffffffff163110151515610b12576040517f08c379a00000000000000000000000000000000000000000000000000000000081526004018080602001828103825260148152602001807f496e73756666696369656e742062616c616e636500000000000000000000000081525060200191505060405180910390fd5b603854603a6000828254039250508190555060003373ffffffffffffffffffffffffffffffffffffffff1660385460405180600001905060006040518083038185875af1925050503d8060008114610b86576040519150601f19603f3d011682016040523d82523d6000602084013e610b8b565b606091505b50509050801515610c04576040517f08c379a000000000000000000000000000000000000000000000000000000000815260040180806020018281038252600f8152602001807f5472616e73666572206661696c6564000000000000000000000000000000000081525060200191505060405180910390fd5b3373ffffffffffffffffffffffffffffffffffffffff167f1af29253cf1067258441d039ac7f407bcbec6482eb0902c3af3d5bfbbaf961396038546040518082815260200191505060405180910390a250565b6000603460009054906101000a900473ffffffffffffffffffffffffffffffffffffffff1673ffffffffffffffffffffffffffffffffffffffff163373ffffffffffffffffffffffffffffffffffffffff161480610d025750603560009054906101000a900473ffffffffffffffffffffffffffffffffffffffff1673ffffffffffffffffffffffffffffffffffffffff163373ffffffffffffffffffffffffffffffffffffffff16145b1515610d76576040517f08c379a00000000000000000000000000000000000000000000000000000000081526004018080602001828103825260158152602001807f53656e646572206e6f7420617574686f72697a6564000000000000000000000081525060200191505060405180910390fd5b603654905090565b603560009054906101000a900473ffffffffffffffffffffffffffffffffffffffff1673ffffffffffffffffffffffffffffffffffffffff163373ffffffffffffffffffffffffffffffffffffffff16141515610e43576040517f08c379a00000000000000000000000000000000000000000000000000000000081526004018080602001828103825260158152602001807f53656e646572206e6f7420617574686f72697a6564000000000000000000000081525060200191505060405180910390fd5b610e4b61161a565b1515610ebf576040517f08c379a00000000000000000000000000000000000000000000000000000000081526004018080602001828103825260168152602001807f457363726f77206973206e6f7420636f6d706c6574650000000000000000000081525060200191505060405180910390fd5b603b60029054906101000a900460ff161515610f43576040517f08c379a00000000000000000000000000000000000000000000000000000000081526004018080602001828103825260198152602001807f416374696f6e206e6f7420617574686f72697a6564206e6f770000000000000081525060200191505060405180910390fd5b603654603760009054906101000a900473ffffffffffffffffffffffffffffffffffffffff1673ffffffffffffffffffffffffffffffffffffffff166370a08231306040518263ffffffff1660e01b8152600401808273ffffffffffffffffffffffffffffffffffffffff1673ffffffffffffffffffffffffffffffffffffffff16815260200191505060206040518083038186803b158015610fe557600080fd5b505afa158015610ff9573d6000803e3d6000fd5b505050506040513d602081101561100f57600080fd5b810190808051906020019092919050505010151515611096576040517f08c379a00000000000000000000000000000000000000000000000000000000081526004018080602001828103825260148152602001807f496e73756666696369656e742062616c616e636500000000000000000000000081525060200191505060405180910390fd5b603654603960008282540392505081905550603760009054906101000a900473ffffffffffffffffffffffffffffffffffffffff1673ffffffffffffffffffffffffffffffffffffffff1663a9059cbb336036546040518363ffffffff1660e01b8152600401808373ffffffffffffffffffffffffffffffffffffffff1673ffffffffffffffffffffffffffffffffffffffff16815260200182815260200192505050602060405180830381600087803b15801561115357600080fd5b505af1158015611167573d6000803e3d6000fd5b505050506040513d602081101561117d57600080fd5b81019080805190602001909291905050501515611202576040517f08c379a000000000000000000000000000000000000000000000000000000000815260040180806020018281038252600f8152602001807f5472616e73666572206661696c6564000000000000000000000000000000000081525060200191505060405180910390fd5b3373ffffffffffffffffffffffffffffffffffffffff167ffe1e2e5abdf2e3c7240f425d536b4e6cd09a7c82a9a9ad11a0958bf6619552586036546040518082815260200191505060405180910390a2565b6000603360009054906101000a900473ffffffffffffffffffffffffffffffffffffffff1673ffffffffffffffffffffffffffffffffffffffff163373ffffffffffffffffffffffffffffffffffffffff1614151561131b576040517f08c379a00000000000000000000000000000000000000000000000000000000081526004018080602001828103825260158152602001807f53656e646572206e6f7420617574686f72697a6564000000000000000000000081525060200191505060405180910390fd5b6001603b60026101000a81548160ff0219169083151502179055905090565b603560009054906101000a900473ffffffffffffffffffffffffffffffffffffffff1673ffffffffffffffffffffffffffffffffffffffff163373ffffffffffffffffffffffffffffffffffffffff161415156113ff576040517f08c379a00000000000000000000000000000000000000000000000000000000081526004018080602001828103825260158152602001807f53656e646572206e6f7420617574686f72697a6564000000000000000000000081525060200191505060405180910390fd5b60385434141515611478576040517f08c379a00000000000000000000000000000000000000000000000000000000081526004018080602001828103825260108152602001807f496e636f727265637420616d6f756e740000000000000000000000000000000081525060200191505060405180910390fd5b34603a600082825401925050819055506001603b60016101000a81548160ff0219169083151502179055503373ffffffffffffffffffffffffffffffffffffffff167ff2598df202d3cadb52483cd2661c01cede4fb2f89bcf74c42299b1fca3188773346040518082815260200191505060405180910390a2565b6000603460009054906101000a900473ffffffffffffffffffffffffffffffffffffffff1673ffffffffffffffffffffffffffffffffffffffff163373ffffffffffffffffffffffffffffffffffffffff16148061159e5750603560009054906101000a900473ffffffffffffffffffffffffffffffffffffffff1673ffffffffffffffffffffffffffffffffffffffff163373ffffffffffffffffffffffffffffffffffffffff16145b1515611612576040517f08c379a00000000000000000000000000000000000000000000000000000000081526004018080602001828103825260158152602001807f53656e646572206e6f7420617574686f72697a6564000000000000000000000081525060200191505060405180910390fd5b603854905090565b6000603560009054906101000a900473ffffffffffffffffffffffffffffffffffffffff1673ffffffffffffffffffffffffffffffffffffffff163373ffffffffffffffffffffffffffffffffffffffff1614806116c55750603460009054906101000a900473ffffffffffffffffffffffffffffffffffffffff1673ffffffffffffffffffffffffffffffffffffffff163373ffffffffffffffffffffffffffffffffffffffff16145b8061171d5750603360009054906101000a900473ffffffffffffffffffffffffffffffffffffffff1673ffffffffffffffffffffffffffffffffffffffff163373ffffffffffffffffffffffffffffffffffffffff16145b8061175357503073ffffffffffffffffffffffffffffffffffffffff163373ffffffffffffffffffffffffffffffffffffffff16145b15156117c7576040517f08c379a00000000000000000000000000000000000000000000000000000000081526004018080602001828103825260158152602001807f53656e646572206e6f7420617574686f72697a6564000000000000000000000081525060200191505060405180910390fd5b603b60009054906101000a900460ff1680156117ef5750603b60019054906101000a900460ff165b905090565b6000803090506000813b905060008114925050509056fe436f6e747261637420696e7374616e63652068617320616c7265616479206265656e20696e697469616c697a6564a165627a7a72305820978d7a665fb0618c672caacf8b25d12c4ade2688409a7c402420274577ad40e20029",
  "source": "// SPDX-License-Identifier: MIT\npragma solidity 0.5.3;\n\nimport '@openzeppelin/contracts/token/ERC20/IERC20.sol';\nimport '@openzeppelin/upgrades/contracts/Initializable.sol';\nimport './MikeToken.sol';\n\n/// @title Gloom - contracts to auction off ERC-20 tokens to the highest bidder (in ETH)\n/// @title Escrow contract, to be used in conjunction with AuctionFactory and Auction contracts\n/// @author Michael S. Mueller\n/// @notice This MVP is designed to handle one auction or one auction invite per address\n/// @notice This is a demo, do not use on mainnet\n/// @dev Escrow inherits Initializable to ensure Escrow is only initialized once\n\n/*\n    ===== OVERVIEW =====\n\n    AUCTION PHASES\n    - Phase begins in Setup, later Seller triggers move to Commit, Reveal, Deliver, Withdraw\n\n    SETUP\n    - Seller configures (but does not transfer) ERC-20 token amount and address\n    - Auction Factory deploys new clone of Auction (logic) contract with this configuration\n    - Seller makes seller deposit (in ETH) into Auction\n    - Seller specifies bidder deposit requirement (in ETH) and invites bidders to Auction\n\n    COMMIT\n    - Bidders deposit into Auction (in ETH) and commit a hash (with salt) of their bid (denominated in ETH)\n \n    REVEAL\n    - Bidders reveal their bids, Auction contract assigns winner and deploys new Escrow contract\n\n    DELIVER\n    - Seller transfers (using approve / transferFrom pattern) their ERC-20 tokens into Escrow\n    - Winning bidder transfers winning bid (in ETH) to Escrow\n\n    WITHDRAW\n    - Seller withdraws their seller deposit (in ETH) from Auction and the winning bid proceeds (in ETH) from Escrow\n    - Bidder withdraws their bidder deposit (in ETH) from Auction and ERC-20 tokens from Escrow\n*/\n\ncontract Escrow is Initializable {\n  // address of auction that deploys this Escrow instance\n  address private auction;\n  address private seller;\n  address private buyer;\n  // number of tokens, 18 decimal precision\n  uint256 private tokenAmount;\n  address private tokenContractAddress;\n  uint256 private winningBid;\n  uint256 private tokenBalance;\n  uint256 private balance;\n  // to track if seller has transferred tokens to Escrow\n  bool private sellerOk;\n  // to track if buyer has paid winning bid to Escrow\n  bool private buyerOk;\n  // to track whether seller (through Auction contract) has triggered Withdraw phase\n  bool private withdrawOk;\n\n  modifier onlySeller {\n    require(msg.sender == seller, 'Sender not authorized');\n    _;\n  }\n\n  modifier onlyBuyer {\n    require(msg.sender == buyer, 'Sender not authorized');\n    _;\n  }\n\n  modifier onlySellerOrBuyer {\n    require(msg.sender == seller || msg.sender == buyer, 'Sender not authorized');\n    _;\n  }\n\n  modifier onlyAuction {\n    require(msg.sender == auction, 'Sender not authorized');\n    _;\n  }\n\n  modifier onlyBuyerSellerAuctionEscrow {\n    require(\n      msg.sender == buyer || msg.sender == seller || msg.sender == auction || msg.sender == address(this),\n      'Sender not authorized'\n    );\n    _;\n  }\n\n  event LogSellerDelivered(address indexed seller, uint256 tokenAmount);\n  event LogBuyerPaid(address indexed buyer, uint256 amount);\n  event LogSellerWithdrew(address indexed seller, uint256 amount);\n  event LogBuyerWithdrew(address indexed buyer, uint256 tokenAmount);\n\n  /// @notice Initialize Escrow in Auction Delivery phase with seller address, ERC-20 token amount and address, and winning bidder and bid\n  /// @dev Initializable contracts have initialize function instead of constructor\n  /// @dev initializer modifier prevents function from being called twice\n  /// @dev Solidity casts winning bid from bytes32 to uint256 here, consider using OpenZeppelin SafeCast.sol\n  /// @param _seller address of seller triggering Auction deploy\n  /// @param _buyer address of winning bidder\n  /// @param _tokenAmount uint number of tokens being auctioned, assumed 18 decimal precision\n  /// @param _tokenContractAddress contract address of token being auction, assumed ERC-20\n  /// @param _winningBid 32-byte hex encoding of winning bid amount (left zero-padded on front end)\n  function initialize(\n    address _seller,\n    address _buyer,\n    uint256 _tokenAmount,\n    address _tokenContractAddress,\n    bytes32 _winningBid\n  ) public initializer {\n    auction = msg.sender;\n    seller = _seller;\n    buyer = _buyer;\n    tokenAmount = _tokenAmount;\n    tokenContractAddress = _tokenContractAddress;\n    winningBid = uint256(_winningBid);\n  }\n\n  /// @notice Get token amount being auctioned \n  /// @dev Used in frontend to show token amount to both seller and buyer\n  /// @dev Should return same as getter in Auction contract, could refactor to use one getter across both contracts\n  /// @return number of tokens being auctioned\n  function getTokenAmount() external view onlySellerOrBuyer returns (uint256) {\n    return tokenAmount;\n  }\n\n  /// @notice Get contract address of token being auctioned \n  /// @dev Used in frontend to show contract token address to both seller and buyer\n  /// @dev Should return same as getter in Auction contract, could refactor to use one getter across both contracts\n  /// @return contract address of tokens being auctioned\n  function getTokenContractAddress() external view onlySellerOrBuyer returns (address) {\n    return tokenContractAddress;\n  }\n\n  /// @notice Get winning bid\n  /// @dev Used in frontend to show winning bid to both seller and buyer\n  /// @dev Should return same as getter in Auction contract, could refactor to use one getter across both contracts\n  /// @return winning bid (in ETH)\n  function getWinningBid() external view onlySellerOrBuyer returns (uint256) {\n    return winningBid;\n  }\n\n  /// @notice Transfer of seller ERC-20 tokens to escrow contract\n  /// @dev Frontend calls approve() of ERC-20 token before transferFrom() may be called\n  /// @dev Frontend could have user make transfer() directly, but separation allows for earlier approve(), e.g. in Setup phase, if so desired\n  /// @dev Performs state updates before external call to prevent reentrancy attack\n  function sellerDelivery() external onlySeller {\n    tokenBalance += tokenAmount;\n    sellerOk = true;\n    require(IERC20(tokenContractAddress).transferFrom(msg.sender, address(this), tokenAmount), 'Transfer failed');\n    emit LogSellerDelivered(msg.sender, tokenAmount);\n  }\n\n  /// @notice Transfer of buyer's winning bid (in ETH) to escrow contract\n  /// @dev Frontend handles buyer transfer\n  function buyerPayment() external payable onlyBuyer {\n    require(msg.value == winningBid, 'Incorrect amount');\n    balance += msg.value;\n    buyerOk = true;\n    emit LogBuyerPaid(msg.sender, msg.value);\n  }\n\n  /// @notice Check if both seller has transferred tokens and buyer has transferred winning bid (in ETH) to Escrow\n  /// @return true if both have transferred, false if either one has not\n  function bothOk() public view onlyBuyerSellerAuctionEscrow returns (bool) {\n    return sellerOk && buyerOk;\n  }\n\n  /// @notice Check if seller (through Auction contract) has triggered Withdraw phase\n  /// @return true if Withdraw phase has been triggered, false if not\n  function startWithdraw() external onlyAuction returns (bool) {\n    return withdrawOk = true;\n  }\n\n  /// @notice Checks if escrow is complete, if so allows Seller to withdraw winning bid (in ETH)\n  /// @dev Performs state updates before external call to prevent reentrancy attack\n  function sellerWithdraw() external payable onlySeller {\n    require(bothOk(), 'Escrow is not complete');\n    require(withdrawOk, 'Action not authorized now');\n    require(address(this).balance >= winningBid, 'Insufficient balance');\n    balance -= winningBid;\n    (bool success, ) = msg.sender.call.value(winningBid)('');\n    require(success, 'Transfer failed');\n    emit LogSellerWithdrew(msg.sender, winningBid);\n  }\n\n  /// @notice Checks if escrow is complete, if so allows Buyer to withdraw tokens\n  /// @dev Performs state updates before external call to prevent reentrancy attack\n  function buyerWithdraw() external onlyBuyer {\n    require(bothOk(), 'Escrow is not complete');\n    require(withdrawOk, 'Action not authorized now');\n    require(IERC20(tokenContractAddress).balanceOf(address(this)) >= tokenAmount, 'Insufficient balance');\n    tokenBalance -= tokenAmount;\n    require(IERC20(tokenContractAddress).transfer(msg.sender, tokenAmount), 'Transfer failed');\n    emit LogBuyerWithdrew(msg.sender, tokenAmount);\n  }\n}\n",
  "sourcePath": "/Users/michaelmueller/code/consensys-bootcamp/gloom/gloom-core/contracts/Escrow.sol",
  "compiler": {
    "name": "solc",
    "version": "0.5.3+commit.10d17f24.Emscripten.clang"
  },
  "schemaVersion": "3.3.3",
  "updatedAt": "2020-12-22T22:05:53.147Z",
  "devdoc": {
    "author": "Michael S. Mueller",
    "details": "Escrow inherits Initializable to ensure Escrow is only initialized once",
    "methods": {
      "bothOk()": {
        "return": "true if both have transferred, false if either one has not"
      },
      "buyerPayment()": {
        "details": "Frontend handles buyer transfer"
      },
      "buyerWithdraw()": {
        "details": "Performs state updates before external call to prevent reentrancy attack"
      },
      "getTokenAmount()": {
        "details": "Used in frontend to show token amount to both seller and buyerShould return same as getter in Auction contract, could refactor to use one getter across both contracts",
        "return": "number of tokens being auctioned"
      },
      "getTokenContractAddress()": {
        "details": "Used in frontend to show contract token address to both seller and buyerShould return same as getter in Auction contract, could refactor to use one getter across both contracts",
        "return": "contract address of tokens being auctioned"
      },
      "getWinningBid()": {
        "details": "Used in frontend to show winning bid to both seller and buyerShould return same as getter in Auction contract, could refactor to use one getter across both contracts",
        "return": "winning bid (in ETH)"
      },
      "initialize(address,address,uint256,address,bytes32)": {
        "details": "Initializable contracts have initialize function instead of constructorinitializer modifier prevents function from being called twiceSolidity casts winning bid from bytes32 to uint256 here, consider using OpenZeppelin SafeCast.sol",
        "params": {
          "_buyer": "address of winning bidder",
          "_seller": "address of seller triggering Auction deploy",
          "_tokenAmount": "uint number of tokens being auctioned, assumed 18 decimal precision",
          "_tokenContractAddress": "contract address of token being auction, assumed ERC-20",
          "_winningBid": "32-byte hex encoding of winning bid amount (left zero-padded on front end)"
        }
      },
      "sellerDelivery()": {
        "details": "Frontend calls approve() of ERC-20 token before transferFrom() may be calledFrontend could have user make transfer() directly, but separation allows for earlier approve(), e.g. in Setup phase, if so desiredPerforms state updates before external call to prevent reentrancy attack"
      },
      "sellerWithdraw()": {
        "details": "Performs state updates before external call to prevent reentrancy attack"
      },
      "startWithdraw()": {
        "return": "true if Withdraw phase has been triggered, false if not"
      }
    },
    "title": "Gloom - contracts to auction off ERC-20 tokens to the highest bidder (in ETH)Escrow contract, to be used in conjunction with AuctionFactory and Auction contracts"
  },
  "userdoc": {
    "methods": {
      "bothOk()": {
        "notice": "Check if both seller has transferred tokens and buyer has transferred winning bid (in ETH) to Escrow"
      },
      "buyerPayment()": {
        "notice": "Transfer of buyer's winning bid (in ETH) to escrow contract"
      },
      "buyerWithdraw()": {
        "notice": "Checks if escrow is complete, if so allows Buyer to withdraw tokens"
      },
      "getTokenAmount()": {
        "notice": "Get token amount being auctioned "
      },
      "getTokenContractAddress()": {
        "notice": "Get contract address of token being auctioned "
      },
      "getWinningBid()": {
        "notice": "Get winning bid"
      },
      "initialize(address,address,uint256,address,bytes32)": {
        "notice": "Initialize Escrow in Auction Delivery phase with seller address, ERC-20 token amount and address, and winning bidder and bid"
      },
      "sellerDelivery()": {
        "notice": "Transfer of seller ERC-20 tokens to escrow contract"
      },
      "sellerWithdraw()": {
        "notice": "Checks if escrow is complete, if so allows Seller to withdraw winning bid (in ETH)"
      },
      "startWithdraw()": {
        "notice": "Check if seller (through Auction contract) has triggered Withdraw phase"
      }
    },
    "notice": "This MVP is designed to handle one auction or one auction invite per addressThis is a demo, do not use on mainnet"
  }
}