{
  "contractName": "Auction",
  "abi": [
    {
      "anonymous": false,
      "inputs": [
        {
          "indexed": true,
          "name": "seller",
          "type": "address"
        },
        {
          "indexed": false,
          "name": "sellerDeposit",
          "type": "uint256"
        }
      ],
      "name": "LogSellerDepositReceived",
      "type": "event"
    },
    {
      "anonymous": false,
      "inputs": [
        {
          "indexed": true,
          "name": "seller",
          "type": "address"
        },
        {
          "indexed": false,
          "name": "amount",
          "type": "uint256"
        }
      ],
      "name": "LogSellerDepositWithdrawn",
      "type": "event"
    },
    {
      "anonymous": false,
      "inputs": [
        {
          "indexed": true,
          "name": "bidder",
          "type": "address"
        },
        {
          "indexed": false,
          "name": "bidderDeposit",
          "type": "uint256"
        }
      ],
      "name": "LogBidderDepositReceived",
      "type": "event"
    },
    {
      "anonymous": false,
      "inputs": [
        {
          "indexed": true,
          "name": "bidder",
          "type": "address"
        },
        {
          "indexed": false,
          "name": "amount",
          "type": "uint256"
        }
      ],
      "name": "LogBidderDepositWithdrawn",
      "type": "event"
    },
    {
      "anonymous": false,
      "inputs": [
        {
          "indexed": true,
          "name": "bidder",
          "type": "address"
        }
      ],
      "name": "LogBidderInvited",
      "type": "event"
    },
    {
      "anonymous": false,
      "inputs": [
        {
          "indexed": true,
          "name": "bidder",
          "type": "address"
        },
        {
          "indexed": false,
          "name": "bidHash",
          "type": "bytes32"
        },
        {
          "indexed": false,
          "name": "bidCommitBlock",
          "type": "uint256"
        }
      ],
      "name": "LogBidCommitted",
      "type": "event"
    },
    {
      "anonymous": false,
      "inputs": [
        {
          "indexed": true,
          "name": "bidder",
          "type": "address"
        },
        {
          "indexed": false,
          "name": "bidHex",
          "type": "bytes32"
        },
        {
          "indexed": false,
          "name": "salt",
          "type": "bytes32"
        }
      ],
      "name": "LogBidRevealed",
      "type": "event"
    },
    {
      "anonymous": false,
      "inputs": [
        {
          "indexed": true,
          "name": "bidder",
          "type": "address"
        },
        {
          "indexed": false,
          "name": "bid",
          "type": "uint256"
        }
      ],
      "name": "LogSetWinner",
      "type": "event"
    },
    {
      "anonymous": false,
      "inputs": [
        {
          "indexed": false,
          "name": "phase",
          "type": "string"
        }
      ],
      "name": "LogPhaseChangeTo",
      "type": "event"
    },
    {
      "constant": false,
      "inputs": [
        {
          "name": "_seller",
          "type": "address"
        },
        {
          "name": "_tokenAmount",
          "type": "uint256"
        },
        {
          "name": "_tokenContractAddress",
          "type": "address"
        }
      ],
      "name": "initialize",
      "outputs": [],
      "payable": false,
      "stateMutability": "nonpayable",
      "type": "function"
    },
    {
      "constant": false,
      "inputs": [],
      "name": "startCommit",
      "outputs": [],
      "payable": false,
      "stateMutability": "nonpayable",
      "type": "function"
    },
    {
      "constant": false,
      "inputs": [],
      "name": "startReveal",
      "outputs": [],
      "payable": false,
      "stateMutability": "nonpayable",
      "type": "function"
    },
    {
      "constant": false,
      "inputs": [],
      "name": "startDeliver",
      "outputs": [],
      "payable": false,
      "stateMutability": "nonpayable",
      "type": "function"
    },
    {
      "constant": false,
      "inputs": [],
      "name": "startWithdraw",
      "outputs": [],
      "payable": false,
      "stateMutability": "nonpayable",
      "type": "function"
    },
    {
      "constant": true,
      "inputs": [
        {
          "name": "data",
          "type": "bytes32"
        },
        {
          "name": "salt",
          "type": "bytes32"
        }
      ],
      "name": "getSaltedHash",
      "outputs": [
        {
          "name": "",
          "type": "bytes32"
        }
      ],
      "payable": false,
      "stateMutability": "view",
      "type": "function"
    },
    {
      "constant": true,
      "inputs": [],
      "name": "getBidders",
      "outputs": [
        {
          "name": "",
          "type": "address[]"
        }
      ],
      "payable": false,
      "stateMutability": "view",
      "type": "function"
    },
    {
      "constant": true,
      "inputs": [],
      "name": "getPhase",
      "outputs": [
        {
          "name": "",
          "type": "string"
        }
      ],
      "payable": false,
      "stateMutability": "view",
      "type": "function"
    },
    {
      "constant": true,
      "inputs": [],
      "name": "getAsset",
      "outputs": [
        {
          "name": "",
          "type": "uint256"
        },
        {
          "name": "",
          "type": "address"
        }
      ],
      "payable": false,
      "stateMutability": "view",
      "type": "function"
    },
    {
      "constant": true,
      "inputs": [],
      "name": "getSellerDeposit",
      "outputs": [
        {
          "name": "",
          "type": "uint256"
        }
      ],
      "payable": false,
      "stateMutability": "view",
      "type": "function"
    },
    {
      "constant": true,
      "inputs": [],
      "name": "getBidderDeposit",
      "outputs": [
        {
          "name": "",
          "type": "uint256"
        }
      ],
      "payable": false,
      "stateMutability": "view",
      "type": "function"
    },
    {
      "constant": true,
      "inputs": [],
      "name": "getWinner",
      "outputs": [
        {
          "name": "",
          "type": "address"
        },
        {
          "name": "",
          "type": "uint256"
        }
      ],
      "payable": false,
      "stateMutability": "view",
      "type": "function"
    },
    {
      "constant": true,
      "inputs": [],
      "name": "getEscrow",
      "outputs": [
        {
          "name": "",
          "type": "address"
        }
      ],
      "payable": false,
      "stateMutability": "view",
      "type": "function"
    },
    {
      "constant": false,
      "inputs": [],
      "name": "receiveSellerDeposit",
      "outputs": [],
      "payable": true,
      "stateMutability": "payable",
      "type": "function"
    },
    {
      "constant": false,
      "inputs": [
        {
          "name": "_bidderDeposit",
          "type": "uint256"
        },
        {
          "name": "_bidderAddresses",
          "type": "address[]"
        }
      ],
      "name": "setupBidders",
      "outputs": [],
      "payable": false,
      "stateMutability": "nonpayable",
      "type": "function"
    },
    {
      "constant": false,
      "inputs": [
        {
          "name": "dataHash",
          "type": "bytes32"
        }
      ],
      "name": "submitBid",
      "outputs": [],
      "payable": true,
      "stateMutability": "payable",
      "type": "function"
    },
    {
      "constant": false,
      "inputs": [
        {
          "name": "bidHex",
          "type": "bytes32"
        },
        {
          "name": "salt",
          "type": "bytes32"
        }
      ],
      "name": "revealBid",
      "outputs": [],
      "payable": false,
      "stateMutability": "nonpayable",
      "type": "function"
    },
    {
      "constant": false,
      "inputs": [],
      "name": "withdrawSellerDeposit",
      "outputs": [],
      "payable": true,
      "stateMutability": "payable",
      "type": "function"
    },
    {
      "constant": false,
      "inputs": [],
      "name": "withdrawBidderDeposit",
      "outputs": [],
      "payable": true,
      "stateMutability": "payable",
      "type": "function"
    }
  ],
  "bytecode": "0x608060405234801561001057600080fd5b50614eff806100206000396000f3fe6080604052600436106101145760003560e01c80638e7ea5b2116100a0578063ad72202b11610064578063ad72202b14610437578063c350a1b51461044e578063cb6632ef146104c9578063eced028014610535578063f34eb206146105c557610114565b80638e7ea5b2146102c457806390ed6bf41461032257806399c6722714610339578063a208ae38146103c9578063a29ea0761461042057610114565b80635c222bad116100e75780635c222bad146101ce57806374d341291461022c578063892e5d8d146102365780638cb94c8d146102615780638dddbf361461026b57610114565b80630ea5f83d146101195780631b3fa8001461015e5780632c5c0c021461018c5780634172fea3146101a3575b600080fd5b34801561012557600080fd5b5061015c6004803603604081101561013c57600080fd5b8101908080359060200190929190803590602001909291905050506105cf565b005b61018a6004803603602081101561017457600080fd5b8101908080359060200190929190505050610972565b005b34801561019857600080fd5b506101a1610aa0565b005b3480156101af57600080fd5b506101b8610ca0565b6040518082815260200191505060405180910390f35b3480156101da57600080fd5b506101e3610d7f565b604051808381526020018273ffffffffffffffffffffffffffffffffffffffff1673ffffffffffffffffffffffffffffffffffffffff1681526020019250505060405180910390f35b610234610e85565b005b34801561024257600080fd5b5061024b611221565b6040518082815260200191505060405180910390f35b610269611300565b005b34801561027757600080fd5b506102ae6004803603604081101561028e57600080fd5b810190808035906020019092919080359060200190929190505050611654565b6040518082815260200191505060405180910390f35b3480156102d057600080fd5b506102d96116c4565b604051808373ffffffffffffffffffffffffffffffffffffffff1673ffffffffffffffffffffffffffffffffffffffff1681526020018281526020019250505060405180910390f35b34801561032e57600080fd5b50610337611835565b005b34801561034557600080fd5b506103c76004803603604081101561035c57600080fd5b81019080803590602001909291908035906020019064010000000081111561038357600080fd5b82018360208201111561039557600080fd5b803590602001918460208302840111640100000000831117156103b757600080fd5b9091929391929390505050611c55565b005b3480156103d557600080fd5b506103de611e15565b604051808273ffffffffffffffffffffffffffffffffffffffff1673ffffffffffffffffffffffffffffffffffffffff16815260200191505060405180910390f35b34801561042c57600080fd5b50610435611f5c565b005b34801561044357600080fd5b5061044c61214c565b005b34801561045a57600080fd5b506104c76004803603606081101561047157600080fd5b81019080803573ffffffffffffffffffffffffffffffffffffffff16906020019092919080359060200190929190803573ffffffffffffffffffffffffffffffffffffffff16906020019092919050505061233c565b005b3480156104d557600080fd5b506104de61252e565b6040518080602001828103825283818151815260200191508051906020019060200280838360005b83811015610521578082015181840152602081019050610506565b505050509050019250505060405180910390f35b34801561054157600080fd5b5061054a612681565b6040518080602001828103825283818151815260200191508051906020019080838360005b8381101561058a57808201518184015260208101905061056f565b50505050905090810190601f1680156105b75780820380516001836020036101000a031916815260200191505b509250505060405180910390f35b6105cd612972565b005b6105d833612b78565b151561064c576040517f08c379a00000000000000000000000000000000000000000000000000000000081526004018080602001828103825260158152602001807f53656e646572206e6f7420617574686f72697a6564000000000000000000000081525060200191505060405180910390fd5b6002600481111561065957fe5b603b60149054906101000a900460ff16600481111561067457fe5b1415156106e9576040517f08c379a00000000000000000000000000000000000000000000000000000000081526004018080602001828103825260198152602001807f416374696f6e206e6f7420617574686f72697a6564206e6f770000000000000081525060200191505060405180910390fd5b60001515603c60003373ffffffffffffffffffffffffffffffffffffffff1673ffffffffffffffffffffffffffffffffffffffff16815260200190815260200160002060020160089054906101000a900460ff1615151415156107b4576040517f08c379a00000000000000000000000000000000000000000000000000000000081526004018080602001828103825260148152602001807f42696420616c72656164792072657665616c656400000000000000000000000081525060200191505060405180910390fd5b603c60003373ffffffffffffffffffffffffffffffffffffffff1673ffffffffffffffffffffffffffffffffffffffff168152602001908152602001600020600101546108018383611654565b141515610876576040517f08c379a000000000000000000000000000000000000000000000000000000000815260040180806020018281038252601c8152602001807f52657665616c6564206861736820646f6573206e6f74206d617463680000000081525060200191505060405180910390fd5b6001603c60003373ffffffffffffffffffffffffffffffffffffffff1673ffffffffffffffffffffffffffffffffffffffff16815260200190815260200160002060020160086101000a81548160ff02191690831515021790555081603c60003373ffffffffffffffffffffffffffffffffffffffff1673ffffffffffffffffffffffffffffffffffffffff168152602001908152602001600020600301819055503373ffffffffffffffffffffffffffffffffffffffff167fc42bff3e3c5b599bb04441506063c877a761104175aa1c6db449e34edc0c051c8383604051808381526020018281526020019250505060405180910390a25050565b61097b33612b78565b15156109ef576040517f08c379a00000000000000000000000000000000000000000000000000000000081526004018080602001828103825260158152602001807f53656e646572206e6f7420617574686f72697a6564000000000000000000000081525060200191505060405180910390fd5b600160048111156109fc57fe5b603b60149054906101000a900460ff166004811115610a1757fe5b141515610a8c576040517f08c379a00000000000000000000000000000000000000000000000000000000081526004018080602001828103825260198152602001807f416374696f6e206e6f7420617574686f72697a6564206e6f770000000000000081525060200191505060405180910390fd5b610a94612bd1565b610a9d81612ce7565b50565b603460009054906101000a900473ffffffffffffffffffffffffffffffffffffffff1673ffffffffffffffffffffffffffffffffffffffff163373ffffffffffffffffffffffffffffffffffffffff16141515610b65576040517f08c379a00000000000000000000000000000000000000000000000000000000081526004018080602001828103825260158152602001807f53656e646572206e6f7420617574686f72697a6564000000000000000000000081525060200191505060405180910390fd5b60026004811115610b7257fe5b603b60149054906101000a900460ff166004811115610b8d57fe5b141515610c02576040517f08c379a00000000000000000000000000000000000000000000000000000000081526004018080602001828103825260198152602001807f416374696f6e206e6f7420617574686f72697a6564206e6f770000000000000081525060200191505060405180910390fd5b6003603b60146101000a81548160ff02191690836004811115610c2157fe5b0217905550610c2e612eed565b610c3661313e565b7f034590679b71f0283ac624a57fa10f8e28e413fbaafb3505f9c6314de602feef6040518080602001828103825260078152602001807f44656c697665720000000000000000000000000000000000000000000000000081525060200191505060405180910390a1565b6000603460009054906101000a900473ffffffffffffffffffffffffffffffffffffffff1673ffffffffffffffffffffffffffffffffffffffff163373ffffffffffffffffffffffffffffffffffffffff161480610d035750610d0233612b78565b5b1515610d77576040517f08c379a00000000000000000000000000000000000000000000000000000000081526004018080602001828103825260158152602001807f53656e646572206e6f7420617574686f72697a6564000000000000000000000081525060200191505060405180910390fd5b603654905090565b600080603460009054906101000a900473ffffffffffffffffffffffffffffffffffffffff1673ffffffffffffffffffffffffffffffffffffffff163373ffffffffffffffffffffffffffffffffffffffff161480610de35750610de233612b78565b5b1515610e57576040517f08c379a00000000000000000000000000000000000000000000000000000000081526004018080602001828103825260158152602001807f53656e646572206e6f7420617574686f72697a6564000000000000000000000081525060200191505060405180910390fd5b603854603960009054906101000a900473ffffffffffffffffffffffffffffffffffffffff16915091509091565b603460009054906101000a900473ffffffffffffffffffffffffffffffffffffffff1673ffffffffffffffffffffffffffffffffffffffff163373ffffffffffffffffffffffffffffffffffffffff16141515610f4a576040517f08c379a00000000000000000000000000000000000000000000000000000000081526004018080602001828103825260158152602001807f53656e646572206e6f7420617574686f72697a6564000000000000000000000081525060200191505060405180910390fd5b600480811115610f5657fe5b603b60149054906101000a900460ff166004811115610f7157fe5b141515610fe6576040517f08c379a00000000000000000000000000000000000000000000000000000000081526004018080602001828103825260198152602001807f416374696f6e206e6f7420617574686f72697a6564206e6f770000000000000081525060200191505060405180910390fd5b603654603a60003373ffffffffffffffffffffffffffffffffffffffff1673ffffffffffffffffffffffffffffffffffffffff168152602001908152602001600020541015151561109f576040517f08c379a00000000000000000000000000000000000000000000000000000000081526004018080602001828103825260148152602001807f496e73756666696369656e742062616c616e636500000000000000000000000081525060200191505060405180910390fd5b603654603a60003373ffffffffffffffffffffffffffffffffffffffff1673ffffffffffffffffffffffffffffffffffffffff1681526020019081526020016000206000828254039250508190555060003373ffffffffffffffffffffffffffffffffffffffff1660365460405180600001905060006040518083038185875af1925050503d8060008114611150576040519150601f19603f3d011682016040523d82523d6000602084013e611155565b606091505b505090508015156111ce576040517f08c379a000000000000000000000000000000000000000000000000000000000815260040180806020018281038252600f8152602001807f5472616e73666572206661696c6564000000000000000000000000000000000081525060200191505060405180910390fd5b3373ffffffffffffffffffffffffffffffffffffffff167f901c78bb97610f38f569945a094fec5f638a4fca6d250b7ba60e797b170f06216036546040518082815260200191505060405180910390a250565b6000603460009054906101000a900473ffffffffffffffffffffffffffffffffffffffff1673ffffffffffffffffffffffffffffffffffffffff163373ffffffffffffffffffffffffffffffffffffffff161480611284575061128333612b78565b5b15156112f8576040517f08c379a00000000000000000000000000000000000000000000000000000000081526004018080602001828103825260158152602001807f53656e646572206e6f7420617574686f72697a6564000000000000000000000081525060200191505060405180910390fd5b603754905090565b61130933612b78565b151561137d576040517f08c379a00000000000000000000000000000000000000000000000000000000081526004018080602001828103825260158152602001807f53656e646572206e6f7420617574686f72697a6564000000000000000000000081525060200191505060405180910390fd5b60048081111561138957fe5b603b60149054906101000a900460ff1660048111156113a457fe5b141515611419576040517f08c379a00000000000000000000000000000000000000000000000000000000081526004018080602001828103825260198152602001807f416374696f6e206e6f7420617574686f72697a6564206e6f770000000000000081525060200191505060405180910390fd5b603754603a60003373ffffffffffffffffffffffffffffffffffffffff1673ffffffffffffffffffffffffffffffffffffffff16815260200190815260200160002054101515156114d2576040517f08c379a00000000000000000000000000000000000000000000000000000000081526004018080602001828103825260148152602001807f496e73756666696369656e742062616c616e636500000000000000000000000081525060200191505060405180910390fd5b603754603a60003373ffffffffffffffffffffffffffffffffffffffff1673ffffffffffffffffffffffffffffffffffffffff1681526020019081526020016000206000828254039250508190555060003373ffffffffffffffffffffffffffffffffffffffff1660375460405180600001905060006040518083038185875af1925050503d8060008114611583576040519150601f19603f3d011682016040523d82523d6000602084013e611588565b606091505b50509050801515611601576040517f08c379a000000000000000000000000000000000000000000000000000000000815260040180806020018281038252600f8152602001807f5472616e73666572206661696c6564000000000000000000000000000000000081525060200191505060405180910390fd5b3373ffffffffffffffffffffffffffffffffffffffff167f7ef43986a417d9870d7e719d5df6d5f84850f598ca5051af21fab3b30da6843a6037546040518082815260200191505060405180910390a250565b6000308383604051602001808473ffffffffffffffffffffffffffffffffffffffff1673ffffffffffffffffffffffffffffffffffffffff1660601b8152601401838152602001828152602001935050505060405160208183030381529060405280519060200120905092915050565b600080603460009054906101000a900473ffffffffffffffffffffffffffffffffffffffff1673ffffffffffffffffffffffffffffffffffffffff163373ffffffffffffffffffffffffffffffffffffffff161480611728575061172733612b78565b5b151561179c576040517f08c379a00000000000000000000000000000000000000000000000000000000081526004018080602001828103825260158152602001807f53656e646572206e6f7420617574686f72697a6564000000000000000000000081525060200191505060405180910390fd5b6000603c6000603560009054906101000a900473ffffffffffffffffffffffffffffffffffffffff1673ffffffffffffffffffffffffffffffffffffffff1673ffffffffffffffffffffffffffffffffffffffff1681526020019081526020016000206003015460001c9050603560009054906101000a900473ffffffffffffffffffffffffffffffffffffffff168192509250509091565b603460009054906101000a900473ffffffffffffffffffffffffffffffffffffffff1673ffffffffffffffffffffffffffffffffffffffff163373ffffffffffffffffffffffffffffffffffffffff161415156118fa576040517f08c379a00000000000000000000000000000000000000000000000000000000081526004018080602001828103825260158152602001807f53656e646572206e6f7420617574686f72697a6564000000000000000000000081525060200191505060405180910390fd5b6003600481111561190757fe5b603b60149054906101000a900460ff16600481111561192257fe5b141515611997576040517f08c379a00000000000000000000000000000000000000000000000000000000081526004018080602001828103825260198152602001807f416374696f6e206e6f7420617574686f72697a6564206e6f770000000000000081525060200191505060405180910390fd5b603b60009054906101000a900473ffffffffffffffffffffffffffffffffffffffff1673ffffffffffffffffffffffffffffffffffffffff1663ee6455a06040518163ffffffff1660e01b815260040160206040518083038186803b1580156119ff57600080fd5b505afa158015611a13573d6000803e3d6000fd5b505050506040513d6020811015611a2957600080fd5b81019080805190602001909291905050501515611aae576040517f08c379a00000000000000000000000000000000000000000000000000000000081526004018080602001828103825260118152602001807f457363726f7720696e636f6d706c65746500000000000000000000000000000081525060200191505060405180910390fd5b603b60009054906101000a900473ffffffffffffffffffffffffffffffffffffffff1673ffffffffffffffffffffffffffffffffffffffff166390ed6bf46040518163ffffffff1660e01b8152600401602060405180830381600087803b158015611b1857600080fd5b505af1158015611b2c573d6000803e3d6000fd5b505050506040513d6020811015611b4257600080fd5b81019080805190602001909291905050501515611bc7576040517f08c379a000000000000000000000000000000000000000000000000000000000815260040180806020018281038252601e8152602001807f4572726f72207374617274696e6720657363726f77207769746864726177000081525060200191505060405180910390fd5b6004603b60146101000a81548160ff02191690836004811115611be657fe5b02179055507f034590679b71f0283ac624a57fa10f8e28e413fbaafb3505f9c6314de602feef6040518080602001828103825260088152602001807f576974686472617700000000000000000000000000000000000000000000000081525060200191505060405180910390a1565b603460009054906101000a900473ffffffffffffffffffffffffffffffffffffffff1673ffffffffffffffffffffffffffffffffffffffff163373ffffffffffffffffffffffffffffffffffffffff16141515611d1a576040517f08c379a00000000000000000000000000000000000000000000000000000000081526004018080602001828103825260158152602001807f53656e646572206e6f7420617574686f72697a6564000000000000000000000081525060200191505060405180910390fd5b60006004811115611d2757fe5b603b60149054906101000a900460ff166004811115611d4257fe5b141515611db7576040517f08c379a00000000000000000000000000000000000000000000000000000000081526004018080602001828103825260198152602001807f416374696f6e206e6f7420617574686f72697a6564206e6f770000000000000081525060200191505060405180910390fd5b8260378190555060008090505b82829050811015611e0f57611e028383838181101515611de057fe5b9050602002013573ffffffffffffffffffffffffffffffffffffffff166133ac565b8080600101915050611dc4565b50505050565b6000603460009054906101000a900473ffffffffffffffffffffffffffffffffffffffff1673ffffffffffffffffffffffffffffffffffffffff163373ffffffffffffffffffffffffffffffffffffffff161480611ec05750603560009054906101000a900473ffffffffffffffffffffffffffffffffffffffff1673ffffffffffffffffffffffffffffffffffffffff163373ffffffffffffffffffffffffffffffffffffffff16145b1515611f34576040517f08c379a00000000000000000000000000000000000000000000000000000000081526004018080602001828103825260158152602001807f53656e646572206e6f7420617574686f72697a6564000000000000000000000081525060200191505060405180910390fd5b603b60009054906101000a900473ffffffffffffffffffffffffffffffffffffffff16905090565b603460009054906101000a900473ffffffffffffffffffffffffffffffffffffffff1673ffffffffffffffffffffffffffffffffffffffff163373ffffffffffffffffffffffffffffffffffffffff16141515612021576040517f08c379a00000000000000000000000000000000000000000000000000000000081526004018080602001828103825260158152602001807f53656e646572206e6f7420617574686f72697a6564000000000000000000000081525060200191505060405180910390fd5b6000600481111561202e57fe5b603b60149054906101000a900460ff16600481111561204957fe5b1415156120be576040517f08c379a00000000000000000000000000000000000000000000000000000000081526004018080602001828103825260198152602001807f416374696f6e206e6f7420617574686f72697a6564206e6f770000000000000081525060200191505060405180910390fd5b6001603b60146101000a81548160ff021916908360048111156120dd57fe5b02179055507f034590679b71f0283ac624a57fa10f8e28e413fbaafb3505f9c6314de602feef6040518080602001828103825260068152602001807f436f6d6d6974000000000000000000000000000000000000000000000000000081525060200191505060405180910390a1565b603460009054906101000a900473ffffffffffffffffffffffffffffffffffffffff1673ffffffffffffffffffffffffffffffffffffffff163373ffffffffffffffffffffffffffffffffffffffff16141515612211576040517f08c379a00000000000000000000000000000000000000000000000000000000081526004018080602001828103825260158152602001807f53656e646572206e6f7420617574686f72697a6564000000000000000000000081525060200191505060405180910390fd5b6001600481111561221e57fe5b603b60149054906101000a900460ff16600481111561223957fe5b1415156122ae576040517f08c379a00000000000000000000000000000000000000000000000000000000081526004018080602001828103825260198152602001807f416374696f6e206e6f7420617574686f72697a6564206e6f770000000000000081525060200191505060405180910390fd5b6002603b60146101000a81548160ff021916908360048111156122cd57fe5b02179055507f034590679b71f0283ac624a57fa10f8e28e413fbaafb3505f9c6314de602feef6040518080602001828103825260068152602001807f52657665616c000000000000000000000000000000000000000000000000000081525060200191505060405180910390a1565b600060019054906101000a900460ff168061235b575061235a61353a565b5b8061237257506000809054906101000a900460ff16155b15156123c9576040517f08c379a000000000000000000000000000000000000000000000000000000000815260040180806020018281038252602e815260200180614ea6602e913960400191505060405180910390fd5b60008060019054906101000a900460ff161590508015612419576001600060016101000a81548160ff02191690831515021790555060016000806101000a81548160ff0219169083151502179055505b33603360006101000a81548173ffffffffffffffffffffffffffffffffffffffff021916908373ffffffffffffffffffffffffffffffffffffffff16021790555083603460006101000a81548173ffffffffffffffffffffffffffffffffffffffff021916908373ffffffffffffffffffffffffffffffffffffffff1602179055508260388190555081603960006101000a81548173ffffffffffffffffffffffffffffffffffffffff021916908373ffffffffffffffffffffffffffffffffffffffff1602179055506000603b60146101000a81548160ff0219169083600481111561250257fe5b021790555080156125285760008060016101000a81548160ff0219169083151502179055505b50505050565b6060603460009054906101000a900473ffffffffffffffffffffffffffffffffffffffff1673ffffffffffffffffffffffffffffffffffffffff163373ffffffffffffffffffffffffffffffffffffffff161415156125f5576040517f08c379a00000000000000000000000000000000000000000000000000000000081526004018080602001828103825260158152602001807f53656e646572206e6f7420617574686f72697a6564000000000000000000000081525060200191505060405180910390fd5b603d80548060200260200160405190810160405280929190818152602001828054801561267757602002820191906000526020600020905b8160009054906101000a900473ffffffffffffffffffffffffffffffffffffffff1673ffffffffffffffffffffffffffffffffffffffff168152602001906001019080831161262d575b5050505050905090565b6060603460009054906101000a900473ffffffffffffffffffffffffffffffffffffffff1673ffffffffffffffffffffffffffffffffffffffff163373ffffffffffffffffffffffffffffffffffffffff1614806126e457506126e333612b78565b5b1515612758576040517f08c379a00000000000000000000000000000000000000000000000000000000081526004018080602001828103825260158152602001807f53656e646572206e6f7420617574686f72697a6564000000000000000000000081525060200191505060405180910390fd5b6000600481111561276557fe5b603b60149054906101000a900460ff16600481111561278057fe5b14156127c3576040805190810160405280600581526020017f5365747570000000000000000000000000000000000000000000000000000000815250905061296f565b600160048111156127d057fe5b603b60149054906101000a900460ff1660048111156127eb57fe5b141561282e576040805190810160405280600681526020017f436f6d6d69740000000000000000000000000000000000000000000000000000815250905061296f565b6002600481111561283b57fe5b603b60149054906101000a900460ff16600481111561285657fe5b1415612899576040805190810160405280600681526020017f52657665616c0000000000000000000000000000000000000000000000000000815250905061296f565b600360048111156128a657fe5b603b60149054906101000a900460ff1660048111156128c157fe5b1415612904576040805190810160405280600781526020017f44656c6976657200000000000000000000000000000000000000000000000000815250905061296f565b60048081111561291057fe5b603b60149054906101000a900460ff16600481111561292b57fe5b141561296e576040805190810160405280600881526020017f5769746864726177000000000000000000000000000000000000000000000000815250905061296f565b5b90565b603460009054906101000a900473ffffffffffffffffffffffffffffffffffffffff1673ffffffffffffffffffffffffffffffffffffffff163373ffffffffffffffffffffffffffffffffffffffff16141515612a37576040517f08c379a00000000000000000000000000000000000000000000000000000000081526004018080602001828103825260158152602001807f53656e646572206e6f7420617574686f72697a6564000000000000000000000081525060200191505060405180910390fd5b60006004811115612a4457fe5b603b60149054906101000a900460ff166004811115612a5f57fe5b141515612ad4576040517f08c379a00000000000000000000000000000000000000000000000000000000081526004018080602001828103825260198152602001807f416374696f6e206e6f7420617574686f72697a6564206e6f770000000000000081525060200191505060405180910390fd5b3460368190555034603a60003373ffffffffffffffffffffffffffffffffffffffff1673ffffffffffffffffffffffffffffffffffffffff168152602001908152602001600020600082825401925050819055503373ffffffffffffffffffffffffffffffffffffffff167fa70e46362fbf151c4cee53d1e6ade4f1927cbd8a50c304602127722c2970716f346040518082815260200191505060405180910390a2565b6000603c60008373ffffffffffffffffffffffffffffffffffffffff1673ffffffffffffffffffffffffffffffffffffffff16815260200190815260200160002060000160009054906101000a900460ff169050919050565b60375434141515612c4a576040517f08c379a000000000000000000000000000000000000000000000000000000000815260040180806020018281038252601e8152602001807f4465706f736974206973206e6f7420726571756972656420616d6f756e74000081525060200191505060405180910390fd5b34603a60003373ffffffffffffffffffffffffffffffffffffffff1673ffffffffffffffffffffffffffffffffffffffff168152602001908152602001600020600082825401925050819055503373ffffffffffffffffffffffffffffffffffffffff167f33d3b73f40f3e42812deab43911b62db3419afadf4c012495ae3ea6c797ccf8d346040518082815260200191505060405180910390a2565b80603c60003373ffffffffffffffffffffffffffffffffffffffff1673ffffffffffffffffffffffffffffffffffffffff1681526020019081526020016000206001018190555043603c60003373ffffffffffffffffffffffffffffffffffffffff1673ffffffffffffffffffffffffffffffffffffffff16815260200190815260200160002060020160006101000a81548167ffffffffffffffff021916908367ffffffffffffffff1602179055506000603c60003373ffffffffffffffffffffffffffffffffffffffff1673ffffffffffffffffffffffffffffffffffffffff16815260200190815260200160002060020160086101000a81548160ff0219169083151502179055503373ffffffffffffffffffffffffffffffffffffffff167f65b4e0715f7f4fbbe8130c9cd49997d379c1682d3a8df08665479e1278dcd440603c60003373ffffffffffffffffffffffffffffffffffffffff1673ffffffffffffffffffffffffffffffffffffffff16815260200190815260200160002060010154603c60003373ffffffffffffffffffffffffffffffffffffffff1673ffffffffffffffffffffffffffffffffffffffff16815260200190815260200160002060020160009054906101000a900467ffffffffffffffff16604051808381526020018267ffffffffffffffff1681526020019250505060405180910390a250565b6000603d6000815481101515612eff57fe5b9060005260206000200160009054906101000a900473ffffffffffffffffffffffffffffffffffffffff1690506000600190505b603d8054905081101561301c576000603d82815481101515612f5157fe5b9060005260206000200160009054906101000a900473ffffffffffffffffffffffffffffffffffffffff169050603c60008473ffffffffffffffffffffffffffffffffffffffff1673ffffffffffffffffffffffffffffffffffffffff16815260200190815260200160002060030154603c60008373ffffffffffffffffffffffffffffffffffffffff1673ffffffffffffffffffffffffffffffffffffffff16815260200190815260200160002060030154111561300e578092505b508080600101915050612f33565b5080603560006101000a81548173ffffffffffffffffffffffffffffffffffffffff021916908373ffffffffffffffffffffffffffffffffffffffff1602179055506000603c6000603560009054906101000a900473ffffffffffffffffffffffffffffffffffffffff1673ffffffffffffffffffffffffffffffffffffffff1673ffffffffffffffffffffffffffffffffffffffff1681526020019081526020016000206003015460001c9050603560009054906101000a900473ffffffffffffffffffffffffffffffffffffffff1673ffffffffffffffffffffffffffffffffffffffff167faddd182192e82d9c59af7a3c77dd5352f1b82fde00e722eb9152bcd797af5c48826040518082815260200191505060405180910390a25050565b60405161314a90613613565b604051809103906000f080158015613166573d6000803e3d6000fd5b50603b60006101000a81548173ffffffffffffffffffffffffffffffffffffffff021916908373ffffffffffffffffffffffffffffffffffffffff1602179055506000603c6000603560009054906101000a900473ffffffffffffffffffffffffffffffffffffffff1673ffffffffffffffffffffffffffffffffffffffff1673ffffffffffffffffffffffffffffffffffffffff168152602001908152602001600020600301549050603b60009054906101000a900473ffffffffffffffffffffffffffffffffffffffff1673ffffffffffffffffffffffffffffffffffffffff166341b1da5c603460009054906101000a900473ffffffffffffffffffffffffffffffffffffffff16603560009054906101000a900473ffffffffffffffffffffffffffffffffffffffff16603854603960009054906101000a900473ffffffffffffffffffffffffffffffffffffffff16866040518663ffffffff1660e01b8152600401808673ffffffffffffffffffffffffffffffffffffffff1673ffffffffffffffffffffffffffffffffffffffff1681526020018573ffffffffffffffffffffffffffffffffffffffff1673ffffffffffffffffffffffffffffffffffffffff1681526020018481526020018373ffffffffffffffffffffffffffffffffffffffff1673ffffffffffffffffffffffffffffffffffffffff16815260200182815260200195505050505050600060405180830381600087803b15801561339157600080fd5b505af11580156133a5573d6000803e3d6000fd5b5050505050565b6133b581612b78565b15151561342a576040517f08c379a00000000000000000000000000000000000000000000000000000000081526004018080602001828103825260168152602001807f42696464657220616c726561647920696e76697465640000000000000000000081525060200191505060405180910390fd5b6001603c60008373ffffffffffffffffffffffffffffffffffffffff1673ffffffffffffffffffffffffffffffffffffffff16815260200190815260200160002060000160006101000a81548160ff021916908315150217905550603d8190806001815401808255809150509060018203906000526020600020016000909192909190916101000a81548173ffffffffffffffffffffffffffffffffffffffff021916908373ffffffffffffffffffffffffffffffffffffffff160217905550506134f481613551565b8073ffffffffffffffffffffffffffffffffffffffff167fb7867537b558220a6eda1faed63bf7356975523a6c01fefd6694f1dbd0adaf9e60405160405180910390a250565b6000803090506000813b9050600081149250505090565b6000603360009054906101000a900473ffffffffffffffffffffffffffffffffffffffff1690508073ffffffffffffffffffffffffffffffffffffffff166356f17082836040518263ffffffff1660e01b8152600401808273ffffffffffffffffffffffffffffffffffffffff1673ffffffffffffffffffffffffffffffffffffffff168152602001915050600060405180830381600087803b1580156135f757600080fd5b505af115801561360b573d6000803e3d6000fd5b505050505050565b611885806136218339019056fe608060405234801561001057600080fd5b50611865806100206000396000f3fe6080604052600436106100915760003560e01c80637cc947d0116100595780637cc947d0146101de57806390ed6bf4146101f557806399ba9ac114610224578063e6cd064b1461022e578063ee6455a01461025957610091565b806322e455841461009657806341b1da5c146100ed5780635750efed1461019257806366af746b146101a957806375f91ec8146101b3575b600080fd5b3480156100a257600080fd5b506100ab610288565b604051808273ffffffffffffffffffffffffffffffffffffffff1673ffffffffffffffffffffffffffffffffffffffff16815260200191505060405180910390f35b3480156100f957600080fd5b50610190600480360360a081101561011057600080fd5b81019080803573ffffffffffffffffffffffffffffffffffffffff169060200190929190803573ffffffffffffffffffffffffffffffffffffffff16906020019092919080359060200190929190803573ffffffffffffffffffffffffffffffffffffffff169060200190929190803590602001909291905050506103cf565b005b34801561019e57600080fd5b506101a76105ea565b005b6101b16108bc565b005b3480156101bf57600080fd5b506101c8610c57565b6040518082815260200191505060405180910390f35b3480156101ea57600080fd5b506101f3610d7e565b005b34801561020157600080fd5b5061020a611254565b604051808215151515815260200191505060405180910390f35b61022c61133a565b005b34801561023a57600080fd5b506102436114f3565b6040518082815260200191505060405180910390f35b34801561026557600080fd5b5061026e61161a565b604051808215151515815260200191505060405180910390f35b6000603460009054906101000a900473ffffffffffffffffffffffffffffffffffffffff1673ffffffffffffffffffffffffffffffffffffffff163373ffffffffffffffffffffffffffffffffffffffff1614806103335750603560009054906101000a900473ffffffffffffffffffffffffffffffffffffffff1673ffffffffffffffffffffffffffffffffffffffff163373ffffffffffffffffffffffffffffffffffffffff16145b15156103a7576040517f08c379a00000000000000000000000000000000000000000000000000000000081526004018080602001828103825260158152602001807f53656e646572206e6f7420617574686f72697a6564000000000000000000000081525060200191505060405180910390fd5b603760009054906101000a900473ffffffffffffffffffffffffffffffffffffffff16905090565b600060019054906101000a900460ff16806103ee57506103ed6117f4565b5b8061040557506000809054906101000a900460ff16155b151561045c576040517f08c379a000000000000000000000000000000000000000000000000000000000815260040180806020018281038252602e81526020018061180c602e913960400191505060405180910390fd5b60008060019054906101000a900460ff1615905080156104ac576001600060016101000a81548160ff02191690831515021790555060016000806101000a81548160ff0219169083151502179055505b33603360006101000a81548173ffffffffffffffffffffffffffffffffffffffff021916908373ffffffffffffffffffffffffffffffffffffffff16021790555085603460006101000a81548173ffffffffffffffffffffffffffffffffffffffff021916908373ffffffffffffffffffffffffffffffffffffffff16021790555084603560006101000a81548173ffffffffffffffffffffffffffffffffffffffff021916908373ffffffffffffffffffffffffffffffffffffffff1602179055508360368190555082603760006101000a81548173ffffffffffffffffffffffffffffffffffffffff021916908373ffffffffffffffffffffffffffffffffffffffff1602179055508160001c60388190555080156105e25760008060016101000a81548160ff0219169083151502179055505b505050505050565b603460009054906101000a900473ffffffffffffffffffffffffffffffffffffffff1673ffffffffffffffffffffffffffffffffffffffff163373ffffffffffffffffffffffffffffffffffffffff161415156106af576040517f08c379a00000000000000000000000000000000000000000000000000000000081526004018080602001828103825260158152602001807f53656e646572206e6f7420617574686f72697a6564000000000000000000000081525060200191505060405180910390fd5b6036546039600082825401925050819055506001603b60006101000a81548160ff021916908315150217905550603760009054906101000a900473ffffffffffffffffffffffffffffffffffffffff1673ffffffffffffffffffffffffffffffffffffffff166323b872dd33306036546040518463ffffffff1660e01b8152600401808473ffffffffffffffffffffffffffffffffffffffff1673ffffffffffffffffffffffffffffffffffffffff1681526020018373ffffffffffffffffffffffffffffffffffffffff1673ffffffffffffffffffffffffffffffffffffffff1681526020018281526020019350505050602060405180830381600087803b1580156107bb57600080fd5b505af11580156107cf573d6000803e3d6000fd5b505050506040513d60208110156107e557600080fd5b8101908080519060200190929190505050151561086a576040517f08c379a000000000000000000000000000000000000000000000000000000000815260040180806020018281038252600f8152602001807f5472616e73666572206661696c6564000000000000000000000000000000000081525060200191505060405180910390fd5b3373ffffffffffffffffffffffffffffffffffffffff167fed344010d421af00a47884e493edf6c4929c6912af83767f16d24220acdaa8316036546040518082815260200191505060405180910390a2565b603460009054906101000a900473ffffffffffffffffffffffffffffffffffffffff1673ffffffffffffffffffffffffffffffffffffffff163373ffffffffffffffffffffffffffffffffffffffff16141515610981576040517f08c379a00000000000000000000000000000000000000000000000000000000081526004018080602001828103825260158152602001807f53656e646572206e6f7420617574686f72697a6564000000000000000000000081525060200191505060405180910390fd5b61098961161a565b15156109fd576040517f08c379a00000000000000000000000000000000000000000000000000000000081526004018080602001828103825260168152602001807f457363726f77206973206e6f7420636f6d706c6574650000000000000000000081525060200191505060405180910390fd5b603b60029054906101000a900460ff161515610a81576040517f08c379a00000000000000000000000000000000000000000000000000000000081526004018080602001828103825260198152602001807f416374696f6e206e6f7420617574686f72697a6564206e6f770000000000000081525060200191505060405180910390fd5b6038543073ffffffffffffffffffffffffffffffffffffffff163110151515610b12576040517f08c379a00000000000000000000000000000000000000000000000000000000081526004018080602001828103825260148152602001807f496e73756666696369656e742062616c616e636500000000000000000000000081525060200191505060405180910390fd5b603854603a6000828254039250508190555060003373ffffffffffffffffffffffffffffffffffffffff1660385460405180600001905060006040518083038185875af1925050503d8060008114610b86576040519150601f19603f3d011682016040523d82523d6000602084013e610b8b565b606091505b50509050801515610c04576040517f08c379a000000000000000000000000000000000000000000000000000000000815260040180806020018281038252600f8152602001807f5472616e73666572206661696c6564000000000000000000000000000000000081525060200191505060405180910390fd5b3373ffffffffffffffffffffffffffffffffffffffff167f1af29253cf1067258441d039ac7f407bcbec6482eb0902c3af3d5bfbbaf961396038546040518082815260200191505060405180910390a250565b6000603460009054906101000a900473ffffffffffffffffffffffffffffffffffffffff1673ffffffffffffffffffffffffffffffffffffffff163373ffffffffffffffffffffffffffffffffffffffff161480610d025750603560009054906101000a900473ffffffffffffffffffffffffffffffffffffffff1673ffffffffffffffffffffffffffffffffffffffff163373ffffffffffffffffffffffffffffffffffffffff16145b1515610d76576040517f08c379a00000000000000000000000000000000000000000000000000000000081526004018080602001828103825260158152602001807f53656e646572206e6f7420617574686f72697a6564000000000000000000000081525060200191505060405180910390fd5b603654905090565b603560009054906101000a900473ffffffffffffffffffffffffffffffffffffffff1673ffffffffffffffffffffffffffffffffffffffff163373ffffffffffffffffffffffffffffffffffffffff16141515610e43576040517f08c379a00000000000000000000000000000000000000000000000000000000081526004018080602001828103825260158152602001807f53656e646572206e6f7420617574686f72697a6564000000000000000000000081525060200191505060405180910390fd5b610e4b61161a565b1515610ebf576040517f08c379a00000000000000000000000000000000000000000000000000000000081526004018080602001828103825260168152602001807f457363726f77206973206e6f7420636f6d706c6574650000000000000000000081525060200191505060405180910390fd5b603b60029054906101000a900460ff161515610f43576040517f08c379a00000000000000000000000000000000000000000000000000000000081526004018080602001828103825260198152602001807f416374696f6e206e6f7420617574686f72697a6564206e6f770000000000000081525060200191505060405180910390fd5b603654603760009054906101000a900473ffffffffffffffffffffffffffffffffffffffff1673ffffffffffffffffffffffffffffffffffffffff166370a08231306040518263ffffffff1660e01b8152600401808273ffffffffffffffffffffffffffffffffffffffff1673ffffffffffffffffffffffffffffffffffffffff16815260200191505060206040518083038186803b158015610fe557600080fd5b505afa158015610ff9573d6000803e3d6000fd5b505050506040513d602081101561100f57600080fd5b810190808051906020019092919050505010151515611096576040517f08c379a00000000000000000000000000000000000000000000000000000000081526004018080602001828103825260148152602001807f496e73756666696369656e742062616c616e636500000000000000000000000081525060200191505060405180910390fd5b603654603960008282540392505081905550603760009054906101000a900473ffffffffffffffffffffffffffffffffffffffff1673ffffffffffffffffffffffffffffffffffffffff1663a9059cbb336036546040518363ffffffff1660e01b8152600401808373ffffffffffffffffffffffffffffffffffffffff1673ffffffffffffffffffffffffffffffffffffffff16815260200182815260200192505050602060405180830381600087803b15801561115357600080fd5b505af1158015611167573d6000803e3d6000fd5b505050506040513d602081101561117d57600080fd5b81019080805190602001909291905050501515611202576040517f08c379a000000000000000000000000000000000000000000000000000000000815260040180806020018281038252600f8152602001807f5472616e73666572206661696c6564000000000000000000000000000000000081525060200191505060405180910390fd5b3373ffffffffffffffffffffffffffffffffffffffff167ffe1e2e5abdf2e3c7240f425d536b4e6cd09a7c82a9a9ad11a0958bf6619552586036546040518082815260200191505060405180910390a2565b6000603360009054906101000a900473ffffffffffffffffffffffffffffffffffffffff1673ffffffffffffffffffffffffffffffffffffffff163373ffffffffffffffffffffffffffffffffffffffff1614151561131b576040517f08c379a00000000000000000000000000000000000000000000000000000000081526004018080602001828103825260158152602001807f53656e646572206e6f7420617574686f72697a6564000000000000000000000081525060200191505060405180910390fd5b6001603b60026101000a81548160ff0219169083151502179055905090565b603560009054906101000a900473ffffffffffffffffffffffffffffffffffffffff1673ffffffffffffffffffffffffffffffffffffffff163373ffffffffffffffffffffffffffffffffffffffff161415156113ff576040517f08c379a00000000000000000000000000000000000000000000000000000000081526004018080602001828103825260158152602001807f53656e646572206e6f7420617574686f72697a6564000000000000000000000081525060200191505060405180910390fd5b60385434141515611478576040517f08c379a00000000000000000000000000000000000000000000000000000000081526004018080602001828103825260108152602001807f496e636f727265637420616d6f756e740000000000000000000000000000000081525060200191505060405180910390fd5b34603a600082825401925050819055506001603b60016101000a81548160ff0219169083151502179055503373ffffffffffffffffffffffffffffffffffffffff167ff2598df202d3cadb52483cd2661c01cede4fb2f89bcf74c42299b1fca3188773346040518082815260200191505060405180910390a2565b6000603460009054906101000a900473ffffffffffffffffffffffffffffffffffffffff1673ffffffffffffffffffffffffffffffffffffffff163373ffffffffffffffffffffffffffffffffffffffff16148061159e5750603560009054906101000a900473ffffffffffffffffffffffffffffffffffffffff1673ffffffffffffffffffffffffffffffffffffffff163373ffffffffffffffffffffffffffffffffffffffff16145b1515611612576040517f08c379a00000000000000000000000000000000000000000000000000000000081526004018080602001828103825260158152602001807f53656e646572206e6f7420617574686f72697a6564000000000000000000000081525060200191505060405180910390fd5b603854905090565b6000603560009054906101000a900473ffffffffffffffffffffffffffffffffffffffff1673ffffffffffffffffffffffffffffffffffffffff163373ffffffffffffffffffffffffffffffffffffffff1614806116c55750603460009054906101000a900473ffffffffffffffffffffffffffffffffffffffff1673ffffffffffffffffffffffffffffffffffffffff163373ffffffffffffffffffffffffffffffffffffffff16145b8061171d5750603360009054906101000a900473ffffffffffffffffffffffffffffffffffffffff1673ffffffffffffffffffffffffffffffffffffffff163373ffffffffffffffffffffffffffffffffffffffff16145b8061175357503073ffffffffffffffffffffffffffffffffffffffff163373ffffffffffffffffffffffffffffffffffffffff16145b15156117c7576040517f08c379a00000000000000000000000000000000000000000000000000000000081526004018080602001828103825260158152602001807f53656e646572206e6f7420617574686f72697a6564000000000000000000000081525060200191505060405180910390fd5b603b60009054906101000a900460ff1680156117ef5750603b60019054906101000a900460ff165b905090565b6000803090506000813b905060008114925050509056fe436f6e747261637420696e7374616e63652068617320616c7265616479206265656e20696e697469616c697a6564a165627a7a72305820978d7a665fb0618c672caacf8b25d12c4ade2688409a7c402420274577ad40e20029436f6e747261637420696e7374616e63652068617320616c7265616479206265656e20696e697469616c697a6564a165627a7a7230582009c554216b72f25a730ead27a4f7815a90933e164074ff9304a4f259921125b90029",
  "source": "// SPDX-License-Identifier: MIT\npragma solidity 0.5.3;\n\nimport '@openzeppelin/upgrades/contracts/Initializable.sol';\nimport './AuctionFactory.sol';\nimport './Escrow.sol';\n\n/// @title Gloom - contracts to auction off ERC-20 tokens to the highest bidder (in ETH)\n/// @title Auction contract, to be used in conjunction with AuctionFactory and Escrow contracts\n/// @author Michael S. Mueller\n/// @notice This MVP is designed to handle one auction or one auction invite per address\n/// @notice This is a demo, do not use on mainnet\n/// @dev Auction inherits Initializable to ensure Auction is only initialized once\n\n/*\n    ===== OVERVIEW =====\n\n    PHASES\n    - Phase begins in Setup, later Seller triggers move to Commit, Reveal, Deliver, Withdraw\n\n    SETUP\n    - Seller configures (but does not transfer) ERC-20 token amount and address\n    - Auction Factory deploys new clone of Auction (logic) contract with this configuration\n    - Seller makes seller deposit (in ETH) into Auction\n    - Seller specifies bidder deposit requirement (in ETH) and invites bidders to Auction\n\n    COMMIT\n    - Bidders deposit into Auction (in ETH) and commit a hash (with salt) of their bid (denominated in ETH)\n \n    REVEAL\n    - Bidders reveal their bids, Auction contract assigns winner and deploys new Escrow contract\n\n    DELIVER\n    - Seller transfers (using approve / transferFrom pattern) their ERC-20 tokens into Escrow\n    - Winning bidder transfers winning bid (in ETH) to Escrow\n\n    WITHDRAW\n    - Seller withdraws their seller deposit (in ETH) from Auction and the winning bid proceeds (in ETH) from Escrow\n    - Bidder withdraws their bidder deposit (in ETH) from Auction and ERC-20 tokens from Escrow\n*/\n\ncontract Auction is Initializable {\n  address private factory;\n  address payable private seller;\n  address private winner;\n  uint256 private sellerDeposit;\n  uint256 private bidderDeposit;\n  // number of tokens, 18 decimal precision\n  uint256 private tokenAmount;\n  address private tokenContractAddress;\n  mapping(address => uint256) private balances;\n  Escrow private escrow;\n\n  // seller controls movement from one phase to the next\n  enum Phase { Setup, Commit, Reveal, Deliver, Withdraw }\n  Phase private phase;\n\n  // bidCommit is hashed and salted bid (hidden from other bidders)\n  // bidHex is bid once it has been revealed\n  struct Bidder {\n    bool isInvited;\n    bytes32 bidCommit;\n    uint64 bidCommitBlock;\n    bool isBidRevealed;\n    bytes32 bidHex;\n  }\n  mapping(address => Bidder) private bidders;\n  address[] private bidderAddresses;\n\n  event LogSellerDepositReceived(address indexed seller, uint256 sellerDeposit);\n  event LogSellerDepositWithdrawn(address indexed seller, uint256 amount);\n  event LogBidderDepositReceived(address indexed bidder, uint256 bidderDeposit);\n  event LogBidderDepositWithdrawn(address indexed bidder, uint256 amount);\n  event LogBidderInvited(address indexed bidder);\n  event LogBidCommitted(address indexed bidder, bytes32 bidHash, uint256 bidCommitBlock);\n  event LogBidRevealed(address indexed bidder, bytes32 bidHex, bytes32 salt);\n  event LogSetWinner(address indexed bidder, uint256 bid);\n  event LogPhaseChangeTo(string phase);\n\n  modifier onlySeller {\n    require(msg.sender == seller, 'Sender not authorized');\n    _;\n  }\n\n  modifier onlyBidder {\n    require(isInvitedBidder(msg.sender), 'Sender not authorized');\n    _;\n  }\n\n  modifier onlySellerOrBidder {\n    require(msg.sender == seller || isInvitedBidder(msg.sender), 'Sender not authorized');\n    _;\n  }\n\n  modifier onlySellerOrWinner {\n    require(msg.sender == seller || msg.sender == winner, 'Sender not authorized');\n    _;\n  }\n\n  modifier inSetup {\n    require(phase == Phase.Setup, 'Action not authorized now');\n    _;\n  }\n\n  modifier inCommit {\n    require(phase == Phase.Commit, 'Action not authorized now');\n    _;\n  }\n\n  modifier inReveal {\n    require(phase == Phase.Reveal, 'Action not authorized now');\n    _;\n  }\n\n  modifier inDeliver {\n    require(phase == Phase.Deliver, 'Action not authorized now');\n    _;\n  }\n\n  modifier inWithdraw {\n    require(phase == Phase.Withdraw, 'Action not authorized now');\n    _;\n  }\n\n  /// @notice Initialize Auction in Setup phase with seller address and ERC-20 token amount and address\n  /// @dev Initializable contracts have initialize function instead of constructor\n  /// @dev initializer modifier prevents function from being called twice\n  /// @param _seller address of seller triggering Auction deploy\n  /// @param _tokenAmount uint number of tokens being auctioned, assumed 18 decimal precision\n  /// @param _tokenContractAddress contract address of token being auction, assumed ERC-20\n  function initialize(\n    address payable _seller,\n    uint256 _tokenAmount,\n    address _tokenContractAddress\n  ) public initializer {\n    factory = msg.sender;\n    seller = _seller;\n    tokenAmount = _tokenAmount;\n    tokenContractAddress = _tokenContractAddress;\n    phase = Phase.Setup;\n  }\n\n  // PHASE CONTROL ONLY SELLER\n\n  /// @notice Start commit\n  /// @dev Frontend listens for phase change logs to update UI\n  function startCommit() external onlySeller inSetup {\n    phase = Phase.Commit;\n    emit LogPhaseChangeTo('Commit');\n  }\n\n  /// @notice Start commit\n  function startReveal() external onlySeller inCommit {\n    phase = Phase.Reveal;\n    emit LogPhaseChangeTo('Reveal');\n  }\n\n  /// @notice Start delivery, determine winner, deploy new escrow contract\n  function startDeliver() external onlySeller inReveal {\n    phase = Phase.Deliver;\n    setWinner();\n    deployEscrow();\n    emit LogPhaseChangeTo('Deliver');\n  }\n\n  /// @notice Check that seller has transferred tokens and buyer has paid, then start withdraw\n  /// @dev Could update to use minimal proxy pattern to deploy escrow with less gas\n  function startWithdraw() external onlySeller inDeliver {\n    require(escrow.bothOk(), 'Escrow incomplete');\n    require(escrow.startWithdraw(), 'Error starting escrow withdraw');\n    phase = Phase.Withdraw;\n    emit LogPhaseChangeTo('Withdraw');\n  }\n\n  // ALL PHASES PUBLIC\n\n  /// @notice Get salt and hash of bid\n  /// @dev Used in frontend in Commit phase and internally in Reveal phase\n  /// @return bytes32 keccak hash of salted bid\n  /// @param data 32-byte hex encoding of bid amount (left zero-padded on front end)\n  /// @param salt 32-byte hex encoding of bidder password (from front end)\n  function getSaltedHash(bytes32 data, bytes32 salt) public view returns (bytes32) {\n    return keccak256(abi.encodePacked(address(this), data, salt));\n  }\n\n  // ALL PHASES PRIVATE\n\n  /// @notice Check if a bidder is invited to Auction\n  /// @dev Used in onlySellerOrBidder modifier and in require statements as check\n  /// @return true if invited, false if not\n  /// @param bidderAddress bidder address to check\n  function isInvitedBidder(address bidderAddress) private view returns (bool) {\n    return bidders[bidderAddress].isInvited;\n  }\n\n  // ALL PHASES ONLY SELLER\n\n  /// @notice Get bidders to Auction\n  /// @dev Used in frontend to show bidders to seller\n  /// @return array of bidder addresses\n  function getBidders() external view onlySeller returns (address[] memory) {\n    return bidderAddresses;\n  }\n\n  // ALL PHASES ONLY SELLER OR BIDDER\n\n  /// @notice Get current Auction phase\n  /// @dev Used in frontend to show phase to both seller and bidders\n  /// @return string representation of current phase\n  function getPhase() external view onlySellerOrBidder returns (string memory) {\n    if (phase == Phase.Setup) return 'Setup';\n    if (phase == Phase.Commit) return 'Commit';\n    if (phase == Phase.Reveal) return 'Reveal';\n    if (phase == Phase.Deliver) return 'Deliver';\n    if (phase == Phase.Withdraw) return 'Withdraw';\n  }\n\n  /// @notice Get details of token being auctioned at any time\n  /// @dev Used in frontend to show asset details to both seller and bidders\n  /// @return number and contract address of tokens being auctioned\n  function getAsset() external view onlySellerOrBidder returns (uint256, address) {\n    return (tokenAmount, tokenContractAddress);\n  }\n\n  /// @notice Get seller deposit amount at any time\n  /// @dev Used in frontend to show seller deposit amount to both seller and bidders\n  /// @return amount of ETH seller has deposited\n  function getSellerDeposit() external view onlySellerOrBidder returns (uint256) {\n    return sellerDeposit;\n  }\n\n  /// @notice Get bidder deposit requirement amount at any time\n  /// @dev Used in frontend to show bidder deposit requirement to both seller and bidders\n  /// @return amount of ETH bidders are required to deposit in order to commit bid\n  function getBidderDeposit() external view onlySellerOrBidder returns (uint256) {\n    return bidderDeposit;\n  }\n\n  /// @notice Get winning bidder address and bid at any time, will have results from Deliver phase\n  /// @dev Used in frontend to show winning bidder and bid to both seller and bidders\n  /// @return winner address and bid (in ETH)\n  function getWinner() external view onlySellerOrBidder returns (address, uint256) {\n    uint256 winningBid = uint256(bidders[winner].bidHex);\n    return (winner, winningBid);\n  }\n\n  // ALL PHASES ONLY SELLER OR WINNER\n\n  /// @notice Get address of deployed Escrow contract at any time\n  /// @dev Used in frontend to obtain escrow contract address for seller and winner\n  /// @return address of deployed Escrow contract\n  function getEscrow() external view onlySellerOrWinner returns (Escrow) {\n    return escrow;\n  }\n\n  // SETUP PHASE ONLY SELLER\n\n  /// @notice Receives seller deposit (in ETH) in Setup phase\n  /// @dev Frontend handles seller transfer\n  /// @dev Seller can submit (and change) sellerDeposit multiple times, which should be controlled for (e.g. multiple deposits)\n  function receiveSellerDeposit() external payable onlySeller inSetup {\n    sellerDeposit = msg.value;\n    balances[msg.sender] += msg.value;\n    emit LogSellerDepositReceived(msg.sender, msg.value);\n  }\n\n  /// @notice Registers bidder at Auction Factory in Setup phase\n  /// @dev We need Auction Factory to know who the bidders are to identify them in front end\n  /// @param bidderAddress bidder address to register at Auction Factory\n  function registerBidderAtFactory(address bidderAddress) private {\n    AuctionFactory auctionFactory = AuctionFactory(factory);\n    auctionFactory.registerBidder(bidderAddress);\n  }\n\n  /// @notice Invites individual bidder in Setup phase\n  /// @param bidderAddress bidder address to invite\n  function inviteBidder(address bidderAddress) private {\n    require(!isInvitedBidder(bidderAddress), 'Bidder already invited');\n    bidders[bidderAddress].isInvited = true;\n    bidderAddresses.push(bidderAddress);\n    registerBidderAtFactory(bidderAddress);\n    emit LogBidderInvited(bidderAddress);\n  }\n\n  /// @notice Seller establishes bidder deposit requirement and invite bidders in Setup phase\n  /// @dev Seller can call this multiple times, should establish logic to prevent or to handle editing bidder setup\n  /// @param _bidderDeposit bidder deposit requirement amount (seller configures on front end when inviting bidders)\n  /// @param _bidderAddresses array of bidders to invite (seller configures on front end)\n  function setupBidders(uint256 _bidderDeposit, address[] calldata _bidderAddresses) external onlySeller inSetup {\n    bidderDeposit = _bidderDeposit;\n    for (uint256 i = 0; i < _bidderAddresses.length; i++) {\n      inviteBidder(_bidderAddresses[i]);\n    }\n  }\n\n  // COMMIT PHASE ONLY BIDDER\n\n  /// @notice Receives bidder deposit (in ETH) in Commit phase\n  /// @dev Frontend handles bidder transfer\n  function receiveBidderDeposit() private {\n    require(msg.value == bidderDeposit, 'Deposit is not required amount');\n    balances[msg.sender] += msg.value;\n    emit LogBidderDepositReceived(msg.sender, msg.value);\n  }\n\n  /// @notice Commit obfuscated bid in Commit phase\n  /// @dev Block.number is not currently used but could compare to block.number at reveal to ensure minimal block difference\n  /// @param dataHash 32-byte keccak256 hash of bid commit amount and salt (return value of getSaltedHash above called from front end)\n  function commitBid(bytes32 dataHash) private {\n    bidders[msg.sender].bidCommit = dataHash;\n    bidders[msg.sender].bidCommitBlock = uint64(block.number);\n    bidders[msg.sender].isBidRevealed = false;\n    emit LogBidCommitted(msg.sender, bidders[msg.sender].bidCommit, bidders[msg.sender].bidCommitBlock);\n  }\n\n  /// @notice Triggers bidder deposit (in ETH) and commits obfuscated bid in Commit phase\n  /// @dev Bidder can submit (and change) bid multiple times, which should be controlled for (e.g. multiple deposits)\n  /// @param dataHash 32-byte keccak256 hash of bid commit amount and salt (return value of getSaltedHash above called from front end)\n  function submitBid(bytes32 dataHash) external payable onlyBidder inCommit {\n    receiveBidderDeposit();\n    commitBid(dataHash);\n  }\n\n  // REVEAL PHASE ONLY BIDDER\n\n  /// @notice Checks revealed bid in Reveal phase to ensure it matches commit, if so stores revealed bid\n  /// @param bidHex 32-byte hex encoding of bid amount (left zero-padded on front end)\n  /// @param salt 32-byte hex encoding of bidder password (from front end)\n  function revealBid(bytes32 bidHex, bytes32 salt) external onlyBidder inReveal {\n    require(bidders[msg.sender].isBidRevealed == false, 'Bid already revealed');\n    require(getSaltedHash(bidHex, salt) == bidders[msg.sender].bidCommit, 'Revealed hash does not match');\n    bidders[msg.sender].isBidRevealed = true;\n    bidders[msg.sender].bidHex = bidHex;\n    emit LogBidRevealed(msg.sender, bidHex, salt);\n  }\n\n  // DELIVER PHASE INTERNAL TRIGGERED BY PHASE CONTROL ONLY SELLER\n\n  /// @notice Cycles through bids and determines winner at start of Deliver phase\n  /// @dev Solidity casts bid from bytes32 to uint256 here, consider using OpenZeppelin SafeCast.sol\n  function setWinner() internal {\n    address _winner = bidderAddresses[0];\n    for (uint256 i = 1; i < bidderAddresses.length; i++) {\n      address current = bidderAddresses[i];\n      if (bidders[current].bidHex > bidders[_winner].bidHex) {\n        _winner = current;\n      }\n    }\n    winner = _winner;\n    uint256 winningBid = uint256(bidders[winner].bidHex);\n    emit LogSetWinner(winner, winningBid);\n  }\n\n  /// @notice Deploys new escrow contract at start of Deliver phase\n  /// @dev Could update to use minimal proxy pattern to deploy Escrow with less gas\n  function deployEscrow() internal {\n    escrow = new Escrow();\n    bytes32 winningBid = bidders[winner].bidHex;\n    escrow.initialize(seller, winner, tokenAmount, tokenContractAddress, winningBid);\n  }\n\n  // WITHDRAW PHASE ONLY SELLER OR BIDDER\n\n  /// @notice Seller withdraws deposit (in ETH) in withdraw phase\n  /// @dev Performs state updates before external call to prevent reentrancy attack\n  /// @dev To test / control for: effects of multiple and changing seller deposits\n  function withdrawSellerDeposit() external payable onlySeller inWithdraw {\n    require(balances[msg.sender] >= sellerDeposit, 'Insufficient balance');\n    balances[msg.sender] -= sellerDeposit;\n    (bool success, ) = msg.sender.call.value(sellerDeposit)('');\n    require(success, 'Transfer failed');\n    emit LogSellerDepositWithdrawn(msg.sender, sellerDeposit);\n  }\n\n  /// @notice Bidder withdraws deposit (in ETH) in withdraw phase\n  /// @dev Performs state updates before external call to prevent reentrancy attack\n  /// @dev To test / control for: effects of multiple and changing deposits by same bidder\n  function withdrawBidderDeposit() external payable onlyBidder inWithdraw {\n    require(balances[msg.sender] >= bidderDeposit, 'Insufficient balance');\n    balances[msg.sender] -= bidderDeposit;\n    (bool success, ) = msg.sender.call.value(bidderDeposit)('');\n    require(success, 'Transfer failed');\n    emit LogBidderDepositWithdrawn(msg.sender, bidderDeposit);\n  }\n}\n",
  "sourcePath": "/Users/michaelmueller/code/consensys-bootcamp/gloom/gloom-core/contracts/Auction.sol",
  "compiler": {
    "name": "solc",
    "version": "0.5.3+commit.10d17f24.Emscripten.clang"
  },
  "schemaVersion": "3.3.3",
  "updatedAt": "2020-12-23T01:03:26.020Z",
  "networkType": "ethereum",
  "devdoc": {
    "author": "Michael S. Mueller",
    "details": "Auction inherits Initializable to ensure Auction is only initialized once",
    "methods": {
      "getAsset()": {
        "details": "Used in frontend to show asset details to both seller and bidders",
        "return": "number and contract address of tokens being auctioned"
      },
      "getBidderDeposit()": {
        "details": "Used in frontend to show bidder deposit requirement to both seller and bidders",
        "return": "amount of ETH bidders are required to deposit in order to commit bid"
      },
      "getBidders()": {
        "details": "Used in frontend to show bidders to seller",
        "return": "array of bidder addresses"
      },
      "getEscrow()": {
        "details": "Used in frontend to obtain escrow contract address for seller and winner",
        "return": "address of deployed Escrow contract"
      },
      "getPhase()": {
        "details": "Used in frontend to show phase to both seller and bidders",
        "return": "string representation of current phase"
      },
      "getSaltedHash(bytes32,bytes32)": {
        "details": "Used in frontend in Commit phase and internally in Reveal phase",
        "params": {
          "data": "32-byte hex encoding of bid amount (left zero-padded on front end)",
          "salt": "32-byte hex encoding of bidder password (from front end)"
        },
        "return": "bytes32 keccak hash of salted bid"
      },
      "getSellerDeposit()": {
        "details": "Used in frontend to show seller deposit amount to both seller and bidders",
        "return": "amount of ETH seller has deposited"
      },
      "getWinner()": {
        "details": "Used in frontend to show winning bidder and bid to both seller and bidders",
        "return": "winner address and bid (in ETH)"
      },
      "initialize(address,uint256,address)": {
        "details": "Initializable contracts have initialize function instead of constructorinitializer modifier prevents function from being called twice",
        "params": {
          "_seller": "address of seller triggering Auction deploy",
          "_tokenAmount": "uint number of tokens being auctioned, assumed 18 decimal precision",
          "_tokenContractAddress": "contract address of token being auction, assumed ERC-20"
        }
      },
      "receiveSellerDeposit()": {
        "details": "Frontend handles seller transferSeller can submit (and change) sellerDeposit multiple times, which should be controlled for (e.g. multiple deposits)"
      },
      "revealBid(bytes32,bytes32)": {
        "params": {
          "bidHex": "32-byte hex encoding of bid amount (left zero-padded on front end)",
          "salt": "32-byte hex encoding of bidder password (from front end)"
        }
      },
      "setupBidders(uint256,address[])": {
        "details": "Seller can call this multiple times, should establish logic to prevent or to handle editing bidder setup",
        "params": {
          "_bidderAddresses": "array of bidders to invite (seller configures on front end)",
          "_bidderDeposit": "bidder deposit requirement amount (seller configures on front end when inviting bidders)"
        }
      },
      "startCommit()": {
        "details": "Frontend listens for phase change logs to update UI"
      },
      "startWithdraw()": {
        "details": "Could update to use minimal proxy pattern to deploy escrow with less gas"
      },
      "submitBid(bytes32)": {
        "details": "Bidder can submit (and change) bid multiple times, which should be controlled for (e.g. multiple deposits)",
        "params": {
          "dataHash": "32-byte keccak256 hash of bid commit amount and salt (return value of getSaltedHash above called from front end)"
        }
      },
      "withdrawBidderDeposit()": {
        "details": "Performs state updates before external call to prevent reentrancy attackTo test / control for: effects of multiple and changing deposits by same bidder"
      },
      "withdrawSellerDeposit()": {
        "details": "Performs state updates before external call to prevent reentrancy attackTo test / control for: effects of multiple and changing seller deposits"
      }
    },
    "title": "Gloom - contracts to auction off ERC-20 tokens to the highest bidder (in ETH)Auction contract, to be used in conjunction with AuctionFactory and Escrow contracts"
  },
  "userdoc": {
    "methods": {
      "getAsset()": {
        "notice": "Get details of token being auctioned at any time"
      },
      "getBidderDeposit()": {
        "notice": "Get bidder deposit requirement amount at any time"
      },
      "getBidders()": {
        "notice": "Get bidders to Auction"
      },
      "getEscrow()": {
        "notice": "Get address of deployed Escrow contract at any time"
      },
      "getPhase()": {
        "notice": "Get current Auction phase"
      },
      "getSaltedHash(bytes32,bytes32)": {
        "notice": "Get salt and hash of bid"
      },
      "getSellerDeposit()": {
        "notice": "Get seller deposit amount at any time"
      },
      "getWinner()": {
        "notice": "Get winning bidder address and bid at any time, will have results from Deliver phase"
      },
      "initialize(address,uint256,address)": {
        "notice": "Initialize Auction in Setup phase with seller address and ERC-20 token amount and address"
      },
      "receiveSellerDeposit()": {
        "notice": "Receives seller deposit (in ETH) in Setup phase"
      },
      "revealBid(bytes32,bytes32)": {
        "notice": "Checks revealed bid in Reveal phase to ensure it matches commit, if so stores revealed bid"
      },
      "setupBidders(uint256,address[])": {
        "notice": "Seller establishes bidder deposit requirement and invite bidders in Setup phase"
      },
      "startCommit()": {
        "notice": "Start commit"
      },
      "startDeliver()": {
        "notice": "Start delivery, determine winner, deploy new escrow contract"
      },
      "startReveal()": {
        "notice": "Start commit"
      },
      "startWithdraw()": {
        "notice": "Check that seller has transferred tokens and buyer has paid, then start withdraw"
      },
      "submitBid(bytes32)": {
        "notice": "Triggers bidder deposit (in ETH) and commits obfuscated bid in Commit phase"
      },
      "withdrawBidderDeposit()": {
        "notice": "Bidder withdraws deposit (in ETH) in withdraw phase"
      },
      "withdrawSellerDeposit()": {
        "notice": "Seller withdraws deposit (in ETH) in withdraw phase"
      }
    },
    "notice": "This MVP is designed to handle one auction or one auction invite per addressThis is a demo, do not use on mainnet"
  }
}