{
  "contractName": "Auction",
  "abi": [
    {
      "inputs": [
        {
          "internalType": "uint256",
          "name": "_amount",
          "type": "uint256"
        },
        {
          "internalType": "address",
          "name": "_tokenContract",
          "type": "address"
        },
        {
          "internalType": "uint256",
          "name": "_startDate",
          "type": "uint256"
        },
        {
          "internalType": "uint256",
          "name": "_endDate",
          "type": "uint256"
        }
      ],
      "stateMutability": "nonpayable",
      "type": "constructor"
    },
    {
      "inputs": [],
      "name": "amount",
      "outputs": [
        {
          "internalType": "uint256",
          "name": "",
          "type": "uint256"
        }
      ],
      "stateMutability": "view",
      "type": "function"
    },
    {
      "inputs": [],
      "name": "buyerDeposit",
      "outputs": [
        {
          "internalType": "uint256",
          "name": "",
          "type": "uint256"
        }
      ],
      "stateMutability": "view",
      "type": "function"
    },
    {
      "inputs": [],
      "name": "sellerDeposit",
      "outputs": [
        {
          "internalType": "uint256",
          "name": "",
          "type": "uint256"
        }
      ],
      "stateMutability": "view",
      "type": "function"
    },
    {
      "inputs": [],
      "name": "tokenContract",
      "outputs": [
        {
          "internalType": "address",
          "name": "",
          "type": "address"
        }
      ],
      "stateMutability": "view",
      "type": "function"
    },
    {
      "inputs": [
        {
          "internalType": "uint256",
          "name": "_amount",
          "type": "uint256"
        }
      ],
      "name": "setAmount",
      "outputs": [],
      "stateMutability": "nonpayable",
      "type": "function"
    },
    {
      "inputs": [],
      "name": "getAmount",
      "outputs": [
        {
          "internalType": "uint256",
          "name": "",
          "type": "uint256"
        }
      ],
      "stateMutability": "view",
      "type": "function"
    },
    {
      "inputs": [],
      "name": "getTokenContract",
      "outputs": [
        {
          "internalType": "address",
          "name": "",
          "type": "address"
        }
      ],
      "stateMutability": "view",
      "type": "function"
    },
    {
      "inputs": [],
      "name": "getStartDate",
      "outputs": [
        {
          "internalType": "uint256",
          "name": "",
          "type": "uint256"
        }
      ],
      "stateMutability": "view",
      "type": "function"
    },
    {
      "inputs": [],
      "name": "getEndDate",
      "outputs": [
        {
          "internalType": "uint256",
          "name": "",
          "type": "uint256"
        }
      ],
      "stateMutability": "view",
      "type": "function"
    }
  ],
  "bytecode": "0x608060405234801561001057600080fd5b506040516102273803806102278339818101604052608081101561003357600080fd5b50805160208201516040830151606090930151600092909255600180546001600160a01b039092166001600160a01b03199092169190911790556002919091556003556101a2806100856000396000f3fe608060405234801561001057600080fd5b50600436106100935760003560e01c806378f305c61161006657806378f305c6146100fd578063a057958714610105578063aa8c217c1461010d578063b135648814610115578063d321fe291461011d57610093565b8063271f88b41461009857806328b7bede146100b75780634c1786ea146100db57806355a373d6146100f5575b600080fd5b6100b5600480360360208110156100ae57600080fd5b5035610125565b005b6100bf61012a565b604080516001600160a01b039092168252519081900360200190f35b6100e3610139565b60408051918252519081900360200190f35b6100bf61013f565b6100e361014e565b6100e3610154565b6100e361015a565b6100e3610160565b6100e3610166565b600055565b6001546001600160a01b031690565b60045481565b6001546001600160a01b031681565b60025490565b60055481565b60005481565b60035490565b6000549056fea2646970667358221220829254e37eca514ab526d68c616bdb26c1a12eb4080a70238a6c184792da894764736f6c63430006020033",
  "source": "// SPDX-License-Identifier: MIT\npragma solidity ^0.6.2;\n\n// import '@openzeppelin/contracts/proxy/Initializable.sol';\n// import '@openzeppelin/upgrades/contracts/Initializable.sol';\n\ncontract Auction {\n  // address public clone;\n  // string public name;\n  uint public amount;\n  address public tokenContract;\n  uint startDate;\n  uint endDate;\n  uint public sellerDeposit;\n  uint public buyerDeposit;\n\n  constructor(uint _amount, address _tokenContract, uint _startDate, uint _endDate) public {\n    // name = _name;\n    amount = _amount;\n    tokenContract = _tokenContract;\n    startDate = _startDate;\n    endDate = _endDate;\n  }\n\n  function setAmount(uint _amount) public {\n    amount = _amount;\n  }\n\n  function getAmount() public view returns (uint) {\n    return amount;\n  }\n\n  function getTokenContract() public view returns (address) {\n    return tokenContract;\n  }\n\n  function getStartDate() public view returns (uint) {\n    return startDate;\n  }\n\n  function getEndDate() public view returns (uint) {\n    return endDate;\n  }\n}\n",
  "sourcePath": "/Users/michaelmueller/code/consensys-bootcamp/gloom/contracts/Auction.sol",
  "compiler": {
    "name": "solc",
    "version": "0.6.2+commit.bacdbe57.Emscripten.clang"
  },
  "schemaVersion": "3.3.1",
  "updatedAt": "2020-11-22T14:39:37.280Z",
  "devdoc": {
    "methods": {}
  },
  "userdoc": {
    "methods": {}
  }
}