{
  "contractName": "AuctionFactory",
  "abi": [
    {
      "inputs": [],
      "stateMutability": "nonpayable",
      "type": "constructor"
    },
    {
      "anonymous": false,
      "inputs": [
        {
          "indexed": false,
          "internalType": "contract Auction",
          "name": "auction",
          "type": "address"
        }
      ],
      "name": "AuctionCreated",
      "type": "event"
    },
    {
      "inputs": [
        {
          "internalType": "uint256",
          "name": "",
          "type": "uint256"
        }
      ],
      "name": "auctionAddresses",
      "outputs": [
        {
          "internalType": "contract Auction",
          "name": "",
          "type": "address"
        }
      ],
      "stateMutability": "view",
      "type": "function",
      "constant": true
    },
    {
      "inputs": [],
      "name": "wtf",
      "outputs": [
        {
          "internalType": "address",
          "name": "",
          "type": "address"
        }
      ],
      "stateMutability": "view",
      "type": "function",
      "constant": true
    },
    {
      "inputs": [],
      "name": "getAddresses",
      "outputs": [
        {
          "internalType": "contract Auction[]",
          "name": "",
          "type": "address[]"
        }
      ],
      "stateMutability": "view",
      "type": "function",
      "constant": true
    },
    {
      "inputs": [
        {
          "internalType": "uint256",
          "name": "amount",
          "type": "uint256"
        },
        {
          "internalType": "address",
          "name": "tokenContract",
          "type": "address"
        },
        {
          "internalType": "uint256",
          "name": "startDate",
          "type": "uint256"
        },
        {
          "internalType": "uint256",
          "name": "endDate",
          "type": "uint256"
        }
      ],
      "name": "createAuction",
      "outputs": [
        {
          "internalType": "address",
          "name": "",
          "type": "address"
        }
      ],
      "stateMutability": "nonpayable",
      "type": "function"
    }
  ],
  "bytecode": "0x608060405234801561001057600080fd5b50600180546001600160a01b0319908116331791829055600280549091166001600160a01b03929092169190911790556105058061004f6000396000f3fe608060405234801561001057600080fd5b506004361061004c5760003560e01c806336b6228814610051578063a39fac1214610075578063ca98362b146100cd578063fda9b5f2146100ea575b600080fd5b610059610122565b604080516001600160a01b039092168252519081900360200190f35b61007d610131565b60408051602080825283518183015283519192839290830191858101910280838360005b838110156100b95781810151838201526020016100a1565b505050509050019250505060405180910390f35b610059600480360360208110156100e357600080fd5b5035610193565b6100596004803603608081101561010057600080fd5b508035906001600160a01b0360208201351690604081013590606001356101ba565b6002546001600160a01b031681565b6060600080548060200260200160405190810160405280929190818152602001828054801561018957602002820191906000526020600020905b81546001600160a01b0316815260019091019060200180831161016b575b5050505050905090565b600081815481106101a057fe5b6000918252602090912001546001600160a01b0316905081565b600080858585856040516101cd9061029b565b9384526001600160a01b03909216602084015260408084019190915260608301919091525190819003608001906000f08015801561020f573d6000803e3d6000fd5b50600080546001810182559080527f290decd9548b62a8d60345a988386fc84ba6bc95484008f6362f93160ef3e5630180546001600160a01b0383166001600160a01b0319909116811790915560408051918252519192507f8a8cc462d00726e0f8c031dd2d6b9dcdf0794fb27a88579830dadee27d43ea7c919081900360200190a150949350505050565b610227806102a98339019056fe608060405234801561001057600080fd5b506040516102273803806102278339818101604052608081101561003357600080fd5b50805160208201516040830151606090930151600092909255600180546001600160a01b039092166001600160a01b03199092169190911790556002919091556003556101a2806100856000396000f3fe608060405234801561001057600080fd5b50600436106100935760003560e01c806378f305c61161006657806378f305c6146100fd578063a057958714610105578063aa8c217c1461010d578063b135648814610115578063d321fe291461011d57610093565b8063271f88b41461009857806328b7bede146100b75780634c1786ea146100db57806355a373d6146100f5575b600080fd5b6100b5600480360360208110156100ae57600080fd5b5035610125565b005b6100bf61012a565b604080516001600160a01b039092168252519081900360200190f35b6100e3610139565b60408051918252519081900360200190f35b6100bf61013f565b6100e361014e565b6100e3610154565b6100e361015a565b6100e3610160565b6100e3610166565b600055565b6001546001600160a01b031690565b60045481565b6001546001600160a01b031681565b60025490565b60055481565b60005481565b60035490565b6000549056fea2646970667358221220829254e37eca514ab526d68c616bdb26c1a12eb4080a70238a6c184792da894764736f6c63430006020033a26469706673582212201658fb9d07b202afdf5a4c2b77195cceaca63f48a0a893f7da4b75c53e81759264736f6c63430006020033",
  "source": "// SPDX-License-Identifier: MIT\npragma solidity ^0.6.2;\n\nimport './Auction.sol';\n// import '@openzeppelin/contracts/access/Ownable.sol';\n\ncontract AuctionFactory {\n  Auction[] public auctionAddresses;\n  address private owner;\n  address public wtf;\n\n  event AuctionCreated(Auction auction);\n\n  constructor() public {\n    owner = msg.sender;\n    wtf = owner;\n  }\n\n  function getAddresses() public view returns (Auction[] memory) {\n    return auctionAddresses;\n  }\n\n  function createAuction(uint amount, address tokenContract, uint startDate, uint endDate) public returns (address) {\n    Auction auction = new Auction(amount, tokenContract, startDate, endDate);\n    auctionAddresses.push(auction);\n    emit AuctionCreated(auction);\n  }\n}\n",
  "sourcePath": "/Users/michaelmueller/code/consensys-bootcamp/gloom/contracts/AuctionFactory.sol",
  "compiler": {
    "name": "solc",
    "version": "0.6.2+commit.bacdbe57.Emscripten.clang"
  },
  "schemaVersion": "3.3.1",
  "updatedAt": "2020-11-22T20:40:51.059Z",
  "networkType": "ethereum",
  "devdoc": {
    "methods": {}
  },
  "userdoc": {
    "methods": {}
  }
}