{
  "contractName": "AuctionFactory",
  "abi": [
    {
      "inputs": [],
      "stateMutability": "nonpayable",
      "type": "constructor"
    },
    {
      "anonymous": false,
      "inputs": [
        {
          "indexed": false,
          "internalType": "contract Auction",
          "name": "auction",
          "type": "address"
        }
      ],
      "name": "AuctionCreated",
      "type": "event"
    },
    {
      "inputs": [
        {
          "internalType": "uint256",
          "name": "",
          "type": "uint256"
        }
      ],
      "name": "auctionAddresses",
      "outputs": [
        {
          "internalType": "contract Auction",
          "name": "",
          "type": "address"
        }
      ],
      "stateMutability": "view",
      "type": "function",
      "constant": true
    },
    {
      "inputs": [],
      "name": "wtf",
      "outputs": [
        {
          "internalType": "address",
          "name": "",
          "type": "address"
        }
      ],
      "stateMutability": "view",
      "type": "function",
      "constant": true
    },
    {
      "inputs": [],
      "name": "getAddresses",
      "outputs": [
        {
          "internalType": "contract Auction[]",
          "name": "",
          "type": "address[]"
        }
      ],
      "stateMutability": "view",
      "type": "function",
      "constant": true
    },
    {
      "inputs": [
        {
          "internalType": "uint256",
          "name": "tokenAmount",
          "type": "uint256"
        },
        {
          "internalType": "address",
          "name": "tokenContractAddress",
          "type": "address"
        },
        {
          "internalType": "uint256",
          "name": "startDateTime",
          "type": "uint256"
        },
        {
          "internalType": "uint256",
          "name": "endDateTime",
          "type": "uint256"
        }
      ],
      "name": "createAuction",
      "outputs": [
        {
          "internalType": "address",
          "name": "",
          "type": "address"
        }
      ],
      "stateMutability": "nonpayable",
      "type": "function"
    }
  ],
  "bytecode": "0x608060405234801561001057600080fd5b50600180546001600160a01b0319908116331791829055600280549091166001600160a01b03929092169190911790556104788061004f6000396000f3fe608060405234801561001057600080fd5b506004361061004c5760003560e01c806336b6228814610051578063a39fac1214610075578063ca98362b146100cd578063fda9b5f2146100ea575b600080fd5b610059610122565b604080516001600160a01b039092168252519081900360200190f35b61007d610131565b60408051602080825283518183015283519192839290830191858101910280838360005b838110156100b95781810151838201526020016100a1565b505050509050019250505060405180910390f35b610059600480360360208110156100e357600080fd5b5035610193565b6100596004803603608081101561010057600080fd5b508035906001600160a01b0360208201351690604081013590606001356101ba565b6002546001600160a01b031681565b6060600080548060200260200160405190810160405280929190818152602001828054801561018957602002820191906000526020600020905b81546001600160a01b0316815260019091019060200180831161016b575b5050505050905090565b600081815481106101a057fe5b6000918252602090912001546001600160a01b0316905081565b600080858585856040516101cd9061029b565b9384526001600160a01b03909216602084015260408084019190915260608301919091525190819003608001906000f08015801561020f573d6000803e3d6000fd5b50600080546001810182559080527f290decd9548b62a8d60345a988386fc84ba6bc95484008f6362f93160ef3e5630180546001600160a01b0383166001600160a01b0319909116811790915560408051918252519192507f8a8cc462d00726e0f8c031dd2d6b9dcdf0794fb27a88579830dadee27d43ea7c919081900360200190a150949350505050565b61019a806102a98339019056fe608060405234801561001057600080fd5b5060405161019a38038061019a8339818101604052608081101561003357600080fd5b50805160208201516040830151606090930151600080546001600160a01b03199081163317909155600193909355600280546001600160a01b039093169290931691909117909155600391909155600455610107806100936000396000f3fe6080604052348015600f57600080fd5b506004361060505760003560e01c806308551a531460555780633c9177cd146077578063775f75df14608f57806382edaf94146095578063eec7faa114609b575b600080fd5b605b60a1565b604080516001600160a01b039092168252519081900360200190f35b607d60b0565b60408051918252519081900360200190f35b607d60b6565b605b60bc565b607d60cb565b6000546001600160a01b031681565b60045481565b60035481565b6002546001600160a01b031681565b6001548156fea264697066735822122053760f66e6af8550b44fe702db2c8b596f69c294bc91cd38a98000f7b78dfcff64736f6c63430006020033a2646970667358221220eeaab672e23dbf9737875933d15359df3105cf5d3e738acb80abaa533e67c34464736f6c63430006020033",
  "source": "// SPDX-License-Identifier: MIT\npragma solidity ^0.6.2;\n\nimport './Auction.sol';\n// import '@openzeppelin/contracts/access/Ownable.sol';\n\ncontract AuctionFactory {\n  Auction[] public auctionAddresses;\n  address private owner;\n  address public wtf;\n\n  event AuctionCreated(Auction auction);\n\n  constructor() public {\n    owner = msg.sender;\n    wtf = owner;\n  }\n\n  function getAddresses() public view returns (Auction[] memory) {\n    return auctionAddresses;\n  }\n\n  function createAuction(uint tokenAmount, address tokenContractAddress, uint startDateTime, uint endDateTime) public returns (address) {\n    Auction auction = new Auction(tokenAmount, tokenContractAddress, startDateTime, endDateTime);\n    auctionAddresses.push(auction);\n    emit AuctionCreated(auction);\n  }\n}\n",
  "sourcePath": "/Users/michaelmueller/code/consensys-bootcamp/gloom/contracts/AuctionFactory.sol",
  "compiler": {
    "name": "solc",
    "version": "0.6.2+commit.bacdbe57.Emscripten.clang"
  },
  "schemaVersion": "3.3.1",
  "updatedAt": "2020-11-25T17:50:59.218Z",
  "networkType": "ethereum",
  "devdoc": {
    "methods": {}
  },
  "userdoc": {
    "methods": {}
  }
}