{
  "contractName": "Auction",
  "abi": [
    {
      "inputs": [
        {
          "internalType": "uint256",
          "name": "_tokenAmount",
          "type": "uint256"
        },
        {
          "internalType": "address",
          "name": "_tokenContractAddress",
          "type": "address"
        },
        {
          "internalType": "uint256",
          "name": "_startDateTime",
          "type": "uint256"
        },
        {
          "internalType": "uint256",
          "name": "_endDateTime",
          "type": "uint256"
        }
      ],
      "stateMutability": "nonpayable",
      "type": "constructor"
    },
    {
      "inputs": [],
      "name": "endDateTime",
      "outputs": [
        {
          "internalType": "uint256",
          "name": "",
          "type": "uint256"
        }
      ],
      "stateMutability": "view",
      "type": "function"
    },
    {
      "inputs": [],
      "name": "seller",
      "outputs": [
        {
          "internalType": "address",
          "name": "",
          "type": "address"
        }
      ],
      "stateMutability": "view",
      "type": "function"
    },
    {
      "inputs": [],
      "name": "startDateTime",
      "outputs": [
        {
          "internalType": "uint256",
          "name": "",
          "type": "uint256"
        }
      ],
      "stateMutability": "view",
      "type": "function"
    },
    {
      "inputs": [],
      "name": "tokenAmount",
      "outputs": [
        {
          "internalType": "uint256",
          "name": "",
          "type": "uint256"
        }
      ],
      "stateMutability": "view",
      "type": "function"
    },
    {
      "inputs": [],
      "name": "tokenContractAddress",
      "outputs": [
        {
          "internalType": "address",
          "name": "",
          "type": "address"
        }
      ],
      "stateMutability": "view",
      "type": "function"
    }
  ],
  "bytecode": "0x608060405234801561001057600080fd5b5060405161019a38038061019a8339818101604052608081101561003357600080fd5b50805160208201516040830151606090930151600080546001600160a01b03199081163317909155600193909355600280546001600160a01b039093169290931691909117909155600391909155600455610107806100936000396000f3fe6080604052348015600f57600080fd5b506004361060505760003560e01c806308551a531460555780633c9177cd146077578063775f75df14608f57806382edaf94146095578063eec7faa114609b575b600080fd5b605b60a1565b604080516001600160a01b039092168252519081900360200190f35b607d60b0565b60408051918252519081900360200190f35b607d60b6565b605b60bc565b607d60cb565b6000546001600160a01b031681565b60045481565b60035481565b6002546001600160a01b031681565b6001548156fea264697066735822122053760f66e6af8550b44fe702db2c8b596f69c294bc91cd38a98000f7b78dfcff64736f6c63430006020033",
  "source": "// SPDX-License-Identifier: MIT\npragma solidity ^0.6.2;\n\n// import '@openzeppelin/contracts/proxy/Initializable.sol';\n// import '@openzeppelin/upgrades/contracts/Initializable.sol';\n\ncontract Auction {\n  address public seller;\n  uint public tokenAmount;\n  address public tokenContractAddress;\n  uint public startDateTime;\n  uint public endDateTime;\n\n  constructor(uint _tokenAmount, address _tokenContractAddress, uint _startDateTime, uint _endDateTime) public {\n    seller = msg.sender;\n    tokenAmount = _tokenAmount;\n    tokenContractAddress = _tokenContractAddress;\n    startDateTime = _startDateTime;\n    endDateTime = _endDateTime;\n  }\n}\n",
  "sourcePath": "/Users/michaelmueller/code/consensys-bootcamp/gloom/contracts/Auction.sol",
  "compiler": {
    "name": "solc",
    "version": "0.6.2+commit.bacdbe57.Emscripten.clang"
  },
  "schemaVersion": "3.3.1",
  "updatedAt": "2020-11-25T17:50:47.908Z",
  "devdoc": {
    "methods": {}
  },
  "userdoc": {
    "methods": {}
  }
}