{
  "contractName": "AuctionFactory",
  "abi": [
    {
      "inputs": [],
      "stateMutability": "nonpayable",
      "type": "constructor"
    },
    {
      "anonymous": false,
      "inputs": [
        {
          "indexed": false,
          "internalType": "contract Auction",
          "name": "auction",
          "type": "address"
        }
      ],
      "name": "AuctionCreated",
      "type": "event"
    },
    {
      "inputs": [
        {
          "internalType": "uint256",
          "name": "",
          "type": "uint256"
        }
      ],
      "name": "auctionAddresses",
      "outputs": [
        {
          "internalType": "contract Auction",
          "name": "",
          "type": "address"
        }
      ],
      "stateMutability": "view",
      "type": "function",
      "constant": true
    },
    {
      "inputs": [],
      "name": "wtf",
      "outputs": [
        {
          "internalType": "address",
          "name": "",
          "type": "address"
        }
      ],
      "stateMutability": "view",
      "type": "function",
      "constant": true
    },
    {
      "inputs": [],
      "name": "getAddresses",
      "outputs": [
        {
          "internalType": "contract Auction[]",
          "name": "",
          "type": "address[]"
        }
      ],
      "stateMutability": "view",
      "type": "function",
      "constant": true
    },
    {
      "inputs": [],
      "name": "createAuction",
      "outputs": [
        {
          "internalType": "address",
          "name": "",
          "type": "address"
        }
      ],
      "stateMutability": "nonpayable",
      "type": "function"
    }
  ],
  "bytecode": "0x608060405234801561001057600080fd5b50600180546001600160a01b0319908116331791829055600280549091166001600160a01b03929092169190911790556103648061004f6000396000f3fe608060405234801561001057600080fd5b506004361061004c5760003560e01c806336b6228814610051578063a39fac1214610075578063ca98362b146100cd578063f5811447146100ea575b600080fd5b6100596100f2565b604080516001600160a01b039092168252519081900360200190f35b61007d610101565b60408051602080825283518183015283519192839290830191858101910280838360005b838110156100b95781810151838201526020016100a1565b505050509050019250505060405180910390f35b610059600480360360208110156100e357600080fd5b5035610163565b61005961018a565b6002546001600160a01b031681565b6060600080548060200260200160405190810160405280929190818152602001828054801561015957602002820191906000526020600020905b81546001600160a01b0316815260019091019060200180831161013b575b5050505050905090565b6000818154811061017057fe5b6000918252602090912001546001600160a01b0316905081565b6000806040516101999061023c565b604051809103906000f0801580156101b5573d6000803e3d6000fd5b50600080546001810182559080527f290decd9548b62a8d60345a988386fc84ba6bc95484008f6362f93160ef3e5630180546001600160a01b0383166001600160a01b0319909116811790915560408051918252519192507f8a8cc462d00726e0f8c031dd2d6b9dcdf0794fb27a88579830dadee27d43ea7c919081900360200190a15090565b60e6806102498339019056fe608060405234801561001057600080fd5b50600a60005560c2806100246000396000f3fe6080604052348015600f57600080fd5b5060043610603c5760003560e01c8063209652551460415780633fa4f2451460595780635524107714605f575b600080fd5b6047607b565b60408051918252519081900360200190f35b60476081565b607960048036036020811015607357600080fd5b50356087565b005b60005490565b60005481565b60005556fea2646970667358221220c02f1ed198466f8bef3522b04a8062d21b93c3a52833b90ea2b3fdc7f2804eb864736f6c63430006020033a26469706673582212204defe01ac55c92a5c61ce192054b8e304baf691a5f7f879c7a56243b4411d02164736f6c63430006020033",
  "source": "// SPDX-License-Identifier: MIT\npragma solidity ^0.6.2;\n\nimport './Auction.sol';\n// import '@openzeppelin/contracts/access/Ownable.sol';\n\ncontract AuctionFactory {\n  Auction[] public auctionAddresses;\n  address private owner;\n  address public wtf;\n\n  event AuctionCreated(Auction auction);\n\n  constructor() public {\n    owner = msg.sender;\n    wtf = owner;\n  }\n\n  function getAddresses() public view returns (Auction[] memory) {\n    return auctionAddresses;\n  }\n\n  function createAuction() public returns (address) {\n    Auction auction = new Auction();\n    auctionAddresses.push(auction);\n    emit AuctionCreated(auction);\n  }\n}\n",
  "sourcePath": "/Users/michaelmueller/code/consensys-bootcamp/gloom/contracts/AuctionFactory.sol",
  "compiler": {
    "name": "solc",
    "version": "0.6.2+commit.bacdbe57.Emscripten.clang"
  },
  "schemaVersion": "3.3.1",
  "updatedAt": "2020-11-17T20:17:09.523Z",
  "networkType": "ethereum",
  "devdoc": {
    "methods": {}
  },
  "userdoc": {
    "methods": {}
  }
}