{
  "contractName": "AuctionLibrary",
  "abi": [
    {
      "inputs": [
        {
          "internalType": "address",
          "name": "_owner",
          "type": "address"
        }
      ],
      "stateMutability": "nonpayable",
      "type": "constructor"
    },
    {
      "anonymous": false,
      "inputs": [
        {
          "indexed": false,
          "internalType": "address",
          "name": "newAuctionAddress",
          "type": "address"
        }
      ],
      "name": "AuctionCreated",
      "type": "event"
    },
    {
      "inputs": [
        {
          "internalType": "uint256",
          "name": "",
          "type": "uint256"
        }
      ],
      "name": "auctionAddresses",
      "outputs": [
        {
          "internalType": "contract Auction",
          "name": "",
          "type": "address"
        }
      ],
      "stateMutability": "view",
      "type": "function"
    },
    {
      "inputs": [],
      "name": "wtf",
      "outputs": [
        {
          "internalType": "address",
          "name": "",
          "type": "address"
        }
      ],
      "stateMutability": "view",
      "type": "function"
    },
    {
      "inputs": [
        {
          "internalType": "uint256",
          "name": "_value",
          "type": "uint256"
        }
      ],
      "name": "createAuction",
      "outputs": [],
      "stateMutability": "nonpayable",
      "type": "function"
    },
    {
      "inputs": [
        {
          "internalType": "uint256",
          "name": "x",
          "type": "uint256"
        }
      ],
      "name": "set",
      "outputs": [],
      "stateMutability": "nonpayable",
      "type": "function"
    },
    {
      "inputs": [],
      "name": "get",
      "outputs": [
        {
          "internalType": "uint256",
          "name": "",
          "type": "uint256"
        }
      ],
      "stateMutability": "view",
      "type": "function"
    }
  ],
  "bytecode": "0x608060405234801561001057600080fd5b506040516102fa3803806102fa8339818101604052602081101561003357600080fd5b5051600180546001600160a01b039092166001600160a01b031992831681179091556002805490921617905561028c8061006e6000396000f3fe608060405234801561001057600080fd5b50600436106100575760003560e01c806336b622881461005c57806360fe47b1146100805780636d4ce63c1461009f578063ca98362b146100b9578063d5563f31146100d6575b600080fd5b6100646100f3565b604080516001600160a01b039092168252519081900360200190f35b61009d6004803603602081101561009657600080fd5b5035610102565b005b6100a7610107565b60408051918252519081900360200190f35b610064600480360360208110156100cf57600080fd5b503561010d565b61009d600480360360208110156100ec57600080fd5b5035610134565b6002546001600160a01b031681565b600355565b60035490565b6000818154811061011a57fe5b6000918252602090912001546001600160a01b0316905081565b600060405161014290610164565b604051809103906000f08015801561015e573d6000803e3d6000fd5b50505050565b60e6806101718339019056fe608060405234801561001057600080fd5b50600a60005560c2806100246000396000f3fe6080604052348015600f57600080fd5b5060043610603c5760003560e01c8063209652551460415780633fa4f2451460595780635524107714605f575b600080fd5b6047607b565b60408051918252519081900360200190f35b60476081565b607960048036036020811015607357600080fd5b50356087565b005b60005490565b60005481565b60005556fea2646970667358221220c02f1ed198466f8bef3522b04a8062d21b93c3a52833b90ea2b3fdc7f2804eb864736f6c63430006020033a26469706673582212200d9cf5e7c15b6ab3fed70126482ece59b4b258c9355e8df64fba53393671360564736f6c63430006020033",
  "source": "// SPDX-License-Identifier: MIT\npragma solidity ^0.6.2;\n\nimport './Auction.sol';\n// import '@openzeppelin/contracts/access/Ownable.sol';\n\ncontract AuctionLibrary {\n  Auction[] public auctionAddresses;\n  address private owner;\n  address public wtf;\n\n  event AuctionCreated(address newAuctionAddress);\n\n  constructor(address _owner) public {\n    owner = _owner;\n    wtf = _owner;\n  }\n\n  function createAuction(uint _value) public {\n    Auction auction = new Auction();\n  }\n\n  uint storedData;\n\n  function set(uint x) public {\n    storedData = x;\n  }\n\n  function get() public view returns (uint) {\n    return storedData;\n  }\n}\n",
  "sourcePath": "/Users/michaelmueller/code/consensys-bootcamp/gloom/contracts/AuctionFactory.sol",
  "compiler": {
    "name": "solc",
    "version": "0.6.2+commit.bacdbe57.Emscripten.clang"
  },
  "schemaVersion": "3.3.1",
  "updatedAt": "2020-11-14T15:01:23.165Z",
  "devdoc": {
    "methods": {}
  },
  "userdoc": {
    "methods": {}
  }
}